:100000000C942E000C940F040C940F040C940F0409
:100010000C940F040C940F040C940F040C940F0414
:100020000C940F040C940F040C940F040C940F0404
:100030000C940F040C940F040C940F040C940F04F4
:100040000C940F040C940F040C940F040C940F04E4
:100050000C940F040060006C00082C0011241FBEDB
:10006000CFE5D8E0DEBFCDBFE4E5F0E040E017C06B
:10007000B591A59135912591059107FD0CC09591FC
:100080008591EF01F92FE82F05900D92A217B30784
:10009000D9F7FE0104C01D92A217B307E1F7EB35B3
:1000A000F40731F70E941B030C940404F894FFCF6B
:1000B000FC012081243008F0BFC13181383008F0C4
:1000C000BDC14281443008F0BBC1213009F473C086
:1000D00038F0223009F4DAC0233009F442C1B2C149
:1000E0004130F9F030F04230A9F1433009F44AC010
:1000F000ABC16AB341E050E0FA0102C0EE0FFF1F4E
:100100003A95E2F79F01262B2ABB2BB3FC01018015
:1001100002C0440F551F0A94E2F7422B4BBB80E00C
:1001200008956AB341E050E0FA0102C0EE0FFF1FEC
:100130003A95E2F79F01262B2ABB2BB3FC010180E5
:1001400002C0440F551F0A94E2F7409542234BBB6F
:1001500080E008952AB341E050E0BA0102C0660F82
:10016000771F3A95E2F7609526232ABB2BB3FC0153
:10017000018002C0440F551F0A94E2F7422B4BBB8B
:1001800080E008952AB341E050E0BA0102C0660F52
:10019000771F3A95E2F7609526232ABB2BB3FC0123
:1001A000018002C0440F551F0A94E2F74095422394
:1001B0004BBB80E008954130F9F030F04230A9F1B6
:1001C000433009F44AC042C167B341E050E0FA014C
:1001D00002C0EE0FFF1F3A95E2F79F01262B27BBC7
:1001E00028B3FC01018002C0440F551F0A94E2F7B6
:1001F000422B48BB80E0089567B341E050E0FA012C
:1002000002C0EE0FFF1F3A95E2F79F01262B27BB96
:1002100028B3FC01018002C0440F551F0A94E2F785
:100220004095422348BB80E0089527B341E050E069
:10023000BA0102C0660F771F3A95E2F76095262350
:1002400027BB28B3FC01018002C0440F551F0A944C
:10025000E2F7422B48BB80E0089527B341E050E02D
:10026000BA0102C0660F771F3A95E2F76095262320
:1002700027BB28B3FC01018002C0440F551F0A941C
:10028000E2F74095422348BB80E008954130F9F001
:1002900030F04230A9F1433009F44AC0D9C064B308
:1002A00041E050E0FA0102C0EE0FFF1F3A95E2F77D
:1002B0009F01262B24BB25B3FC01018002C0440F03
:1002C000551F0A94E2F7422B45BB80E0089564B3C2
:1002D00041E050E0FA0102C0EE0FFF1F3A95E2F74D
:1002E0009F01262B24BB25B3FC01018002C0440FD3
:1002F000551F0A94E2F74095422345BB80E00895DC
:1003000024B341E050E0BA0102C0660F771F3A956E
:10031000E2F76095262324BB25B3FC01018002C0CF
:10032000440F551F0A94E2F7422B45BB80E0089525
:1003300024B341E050E0BA0102C0660F771F3A953E
:10034000E2F76095262324BB25B3FC01018002C09F
:10035000440F551F0A94E2F74095422345BB80E0C5
:1003600008954130F9F030F04230A9F1433009F4FA
:100370004AC070C061B341E050E0FA0102C0EE0F24
:10038000FF1F3A95E2F79F01262B21BB22B3FC0108
:10039000018002C0440F551F0A94E2F7422B42BB72
:1003A00080E0089561B341E050E0FA0102C0EE0F31
:1003B000FF1F3A95E2F79F01262B21BB22B3FC01D8
:1003C000018002C0440F551F0A94E2F74095422372
:1003D00042BB80E0089521B341E050E0BA0102C081
:1003E000660F771F3A95E2F76095262321BB22B36B
:1003F000FC01018002C0440F551F0A94E2F7422B12
:1004000042BB80E0089521B341E050E0BA0102C050
:10041000660F771F3A95E2F76095262321BB22B33A
:10042000FC01018002C0440F551F0A94E2F7409579
:10043000422342BB80E0089582E0089583E008955E
:1004400084E0089580E0089580E0089580E00895B4
:0804500080E0089580E00895AA
:10045800FF920F931F93CF93DF9300D000D000D06B
:10046800CDB7DEB7F12C80E069C08F2D90E0FC019C
:10047800EE0FFF1FE80FF91FDF01A05ABF4F2C91A5
:1004880041E050E04C0F5D1FE40FF51F20831196EB
:100498002C911197218312962C91213099F028F0F4
:1004A8002230F1F0233051F135C0FC01EE0FFF1F6F
:1004B800E80FF91F21E030E02C0F3D1FE20FF31F7A
:1004C800128228C0FC01EE0FFF1FE80FF91F41E060
:1004D80050E04C0F5D1FE40FF51F21E022831AC086
:1004E800FC01EE0FFF1FE80FF91F21E030E02C0F91
:1004F8003D1FE20FF31F21E022830CC0FC01EE0F29
:10050800FF1FE80FF91F41E050E04C0F5D1FE40F9B
:10051800F51F12828C01000F111F800F911F01E03F
:1005280010E00C0F1D1F080F191FC8010E9458006A
:10053800C8010E945800811181E0F39451E05F15D1
:1005480008F093CF26960FB6F894DEBF0FBECDBF46
:0C055800DF91CF911F910F91FF9008954B
:10056400FF920F931F93CF93DF9300D000D000D05E
:10057400CDB7DEB7F12C80E04CC08F2D90E0FC01AC
:10058400EE0FFF1FE80FF91FDF01AA59BF4F2C918F
:1005940041E050E04C0F5D1FE40FF51F20831196DE
:1005A4002C911197218312962C91222319F021303A
:1005B40079F01BC0FC01EE0FFF1FE80FF91F21E0CB
:1005C40030E02C0F3D1FE20FF31F22E022830DC009
:1005D400FC01EE0FFF1FE80FF91F41E050E04C0F44
:1005E4005D1FE40FF51F23E022838C01000F111F10
:1005F400800F911F01E010E00C0F1D1F080F191F41
:10060400C8010E945800C8010E945800811181E06D
:10061400F39451E05F1508F0B0CF26960FB6F89426
:10062400DEBF0FBECDBFDF91CF911F910F91FF9021
:02063400089527
:10063600CF93DF9300D0CDB7DEB781E089838A837D
:100646000E942C020E94B20210E0BE016F5F7F4F33
:1006560081E00E94F403BE016E5F7F4F80E00E943E
:10066600F4038981811121C011110FC060E00E943D
:10067600BF032FE38DE093E0215080409040E1F7E7
:1006860000C0000081E01827E0CF61E080E00E9412
:10069600BF032FE38DE093E0215080409040E1F7C7
:1006A60000C0000081E01827D0CF8A818111CDCF0C
:1006B600111110C060E081E00E94BF032FE38DE0BE
:1006C60093E0215080409040E1F700C0000081E0B7
:1006D6001827BBCF61E081E00E94BF032FE38DE0C6
:1006E60093E0215080409040E1F700C0000081E097
:0406F6001827ABCF47
:1006FA008430D0F56830D0F5813091F028F082301E
:10070A00D9F0833029F134C089B390E002C09595BD
:10071A0087956A95E2F78170FA01808380E00895EF
:10072A0086B390E002C0959587956A95E2F7817045
:10073A00FA01808380E0089583B390E002C0959522
:10074A0087956A95E2F78170FA01808380E00895BF
:10075A0080B390E002C0959587956A95E2F781701B
:10076A00FA01808380E0089582E0089583E0089585
:04077A0080E008957E
:10077E00CF93DF9300D00F92CDB7DEB790E0FC01A0
:10078E00EE0FFF1F8E0F9F1FFC01E05AFF4F62837B
:10079E008081898381818A83613041F028F06230C3
:1007AE0041F0633049F009C01B8207C081E08B83A2
:1007BE0004C081E08B8301C01B82CE0101960E9492
:1007CE005800CE0101960E945800811181E00F90D1
:0A07DE000F900F90DF91CF91089566
:1007E800AB0190E0FC01EE0FFF1F8E0F9F1FFC0175
:1007F800EA59FF4F618180810E947D0380E008955E
:10080800EC010E9414040E941304CE010E941504F6
:06081800CE010E94110454
:04081E000C94000036
:040822000E945600DA
:02082600089533
:02082800089531
:02082A0008952F
:06082C00000000000100C5
:06083200010000010100BD
:00000001FF
