:100000000C9433000C947F010C94A9010C94D3013F
:100010000C9499020C941A010C9472020C94240210
:100020000C944B020C94AC000C94FD010C94E40075
:100030000C9408030C9408030C9408030C94080314
:100040000C945D000C9408030C9408030C940803B2
:100050000C9408030060007E80007E007F00062074
:10006000007F0088800011241FBECFE5D8E0DEBFEE
:10007000CDBFE4E5F0E040E017C0B591A591359122
:100080002591059107FD0CC095918591EF01F92F00
:10009000E82F05900D92A217B307D9F7FE0104C00F
:1000A0001D92A217B307E1F7E536F40731F70E9476
:0A00B000C0020C94FD02F894FFCF8B
:1000BA001F920F920FB60F9211242F933F934F93D3
:1000CA005F936F937F938F939F93AF93BF93EF93B6
:1000DA00FF93A0E6B0E01396ED91FC9114978091FE
:1000EA007D00E80FF11D94B125B190839C91891789
:1000FA0098F48F5F80937D0027B1207EE0916100A4
:10010A00F0916200E80FF11D9081822F892B87B947
:10011A0086B1806486B90AC010927D00E0916500BC
:10012A00F0916600099581E080937E00FF91EF913E
:10013A00BF91AF919F918F917F916F915F914F91F5
:0E014A003F912F910F900FBE0F901F901895B0
:100158001F920F920FB60F9211242F933F934F9334
:100168005F936F937F938F939F93AF93BF93EF9317
:10017800FF93809183009091840089130DC0E091D2
:100188007700F091780009958091820090E09DBDFC
:100198008CBD1092830003C08F5F80938300FF9112
:1001A800EF91BF91AF919F918F917F916F915F91E7
:1001B8004F913F912F910F900FBE0F901F90189560
:1001C8001F920F920FB60F9211242F933F934F93C4
:1001D8005F936F937F938F939F93AF93BF93EF93A7
:1001E800FF93809186009091870089130BC0E0915E
:1001F8007B00F0917C0009958091850082BF109268
:10020800860003C08F5F80938600FF91EF91BF91B6
:10021800AF919F918F917F916F915F914F913F9196
:0C0228002F910F900FBE0F901F901895A3
:100234001F920F920FB60F9211242F933F934F9357
:100244005F936F937F938F939F93AF93BF93EF933A
:10025400FF93809180009091810089130BC0E091FD
:100264006F00F0917000099580917F0084BD109219
:10027400800003C08F5F80938000FF91EF91BF9156
:10028400AF919F918F917F916F915F914F913F912A
:0C0294002F910F900FBE0F901F90189537
:1002A000CF93DF93009739F120917E002130F9F44C
:1002B00010927E0010927D00EC012881E0E6F0E0D3
:1002C0002083A981BA81B283A1832B813C813483AD
:1002D00023838D819E819683858387B1807E9C91C7
:1002E000892B87B986B1806486B980E005C01092F9
:0E02F0007E0080E001C081E0DF91CF91089593
:1002FE001F920F920FB60F9211242F933F934F938D
:10030E005F936F937F938F939F93AF93BF93EF936F
:10031E00FF93E0916B00F0916C0009958AB78064B1
:10032E008ABFFF91EF91BF91AF919F918F917F9176
:10033E006F915F914F913F912F910F900FBE0F9044
:04034E001F9018954F
:100352001F920F920FB60F9211242F933F934F9338
:100362005F936F937F938F939F93AF93BF93EF931B
:10037200FF93E0916900F0916A0009958AB780685D
:100382008ABFFF91EF91BF91AF919F918F917F9122
:100392006F915F914F913F912F910F900FBE0F90F0
:0403A2001F901895FB
:1003A6001F920F920FB60F9211242F933F934F93E4
:1003B6005F936F937F938F939F93AF93BF93EF93C7
:1003C600FF93E0916700F091680009958AB7806213
:1003D6008ABFFF91EF91BF91AF919F918F917F91CE
:1003E6006F915F914F913F912F910F900FBE0F909C
:0403F6001F901895A7
:1003FA001F920F920FB60F9211242F933F934F9390
:10040A005F936F937F938F939F93AF93BF93EF9372
:10041A00FF93E0917900F0917A000995FF91EF91AD
:10042A00BF91AF919F918F917F916F915F914F9102
:0E043A003F912F910F900FBE0F901F901895BD
:100448001F920F920FB60F9211242F933F934F9341
:100458005F936F937F938F939F93AF93BF93EF9324
:10046800FF93E0917500F09176000995FF91EF9167
:10047800BF91AF919F918F917F916F915F914F91B4
:0E0488003F912F910F900FBE0F901F9018956F
:100496001F920F920FB60F9211242F933F934F93F3
:1004A6005F936F937F938F939F93AF93BF93EF93D6
:1004B600FF93E0917300F09174000995FF91EF911D
:1004C600BF91AF919F918F917F916F915F914F9166
:0E04D6003F912F910F900FBE0F901F90189521
:1004E4001F920F920FB60F9211242F933F934F93A5
:1004F4005F936F937F938F939F93AF93BF93EF9388
:10050400FF93E0917100F09172000995FF91EF91D2
:10051400BF91AF919F918F917F916F915F914F9117
:0E0524003F912F910F900FBE0F901F901895D2
:100532001F920F920FB60F9211242F933F934F9356
:100542005F936F937F938F939F93AF93BF93EF9339
:10055200FF93E0916D00F0916E000995FF91EF918C
:10056200BF91AF919F918F917F916F915F914F91C9
:0E0572003F912F910F900FBE0F901F90189584
:10058000CF93DF93CDB7DEB72B970FB6F894DEBFCE
:100590000FBECDBF81E0898383E08A8395E09B8392
:1005A0001C828D83CE0101969F838E83039699874B
:1005B00088878CE093E09B878A870E94E402CE01C3
:0805C00005960E945001FFCFD7
:1005C80087B18F73806487B987B18F7D87B986B10A
:1005D8008F7D86B986B1886086B98FB780688FBFEE
:1005E80086B1887F816086B986B1806886B980E0E7
:0205F800089564
:1005FA00EC010E940E030E940D03CE010E940F031C
:06060A00CE010E940A036C
:040610000C94000046
:040614000E945B00E5
:02061800089543
:02061A00089541
:02061C0008953F
:02061E0008953D
:0106200001D8
:00000001FF
