:100000000C944E000C947F050C947F050C947F0596
:100010000C947F050C947F050C947F050C947F0550
:100020000C947F050C947F050C947F050C947F0540
:100030000C947F050C947F050C947F050C947F0530
:100040000C947F050C947F050C947F050C947F0520
:100050000C947F059E00B700D100E90003011C014C
:100060003601500174018D01A701BF01D901F201D0
:100070000C0226024A0263027D029502AF02C80208
:10008000E202FC022003390353036B0385039E0342
:10009000B803D2030060006C000B0C0011241FBEDB
:1000A000CFE5D8E0DEBFCDBFE4E9F0E040E017C027
:1000B000B591A59135912591059107FD0CC09591BC
:1000C0008591EF01F92FE82F05900D92A217B30744
:1000D000D9F7FE0104C01D92A217B307E1F7EB396F
:1000E000F40731F70E942E050C946E05F894FFCFAB
:1000F000DC012C91243008F06EC311963C911197CD
:10010000383008F06AC31296EC91E83008F067C303
:10011000213009F4DEC038F0223009F4B0C12330B8
:1001200009F483C25EC34E2F50E04830510508F0F9
:100130005AC3FA01E65DFF4F0C9479056AB341E0BA
:1001400050E0FA0102C0EE0FFF1F3A95E2F79F015F
:10015000262B2ABB2BB3DC0111960C9002C0440F56
:10016000551F0A94E2F7422B4BBB80E008956AB317
:1001700041E050E0FA0102C0EE0FFF1F3A95E2F7AE
:100180009F01262B2ABB2BB3DC0111960C9002C0D9
:10019000440F551F0A94E2F7409542234BBB80E081
:1001A00008952AB341E050E0BA0102C0660F771FFC
:1001B0003A95E2F7609526232ABB2BB3FC01018018
:1001C00002C0440F551F0A94E2F7422B4BBB80E05C
:1001D00008952AB341E050E0BA0102C0660F771FCC
:1001E0003A95E2F7609526232ABB2BB3DC011196E2
:1001F0000C9002C0440F551F0A94E2F74095422329
:100200004BBB80E008956AB341E050E0FA0102C0C0
:10021000EE0FFF1F3A95E2F79F01262B2ABB2BB367
:10022000DC0111960C9002C0440F551F0A94E2F7AE
:10023000422B4BBB80E008956AB341E050E0FA01E5
:1002400002C0EE0FFF1F3A95E2F79F01262B2ABB53
:100250002BB3DC0111960C9002C0440F551F0A9479
:10026000E2F7409542234BBB80E008956AB341E03A
:1002700050E0FA0102C0EE0FFF1F3A95E2F79F012E
:10028000262B2ABB2BB3DC0111960C9002C0440F25
:10029000551F0A94E2F7409542234BBB80E0089536
:1002A0006AB341E050E0FA0102C0EE0FFF1F3A9539
:1002B000E2F79F01262B2ABB2BB3DC0111960C9091
:1002C00002C0440F551F0A94E2F7422B4BBB80E05B
:1002D00008954E2F50E04830510508F086C2FA01CB
:1002E000EE5CFF4F0C94790567B341E050E0FA01F2
:1002F00002C0EE0FFF1F3A95E2F79F01262B27BBA6
:1003000028B3DC0111960C9002C0440F551F0A94CB
:10031000E2F7422B48BB80E0089567B341E050E02C
:10032000FA0102C0EE0FFF1F3A95E2F79F01262B5C
:1003300027BB28B3DC0111960C9002C0440F551F57
:100340000A94E2F74095422348BB80E0089527B322
:1003500041E050E0BA0102C0660F771F3A95E2F71C
:100360006095262327BB28B3FC01018002C0440FFF
:10037000551F0A94E2F7422B48BB80E0089527B34B
:1003800041E050E0BA0102C0660F771F3A95E2F7EC
:100390006095262327BB28B3DC0111960C9002C080
:1003A000440F551F0A94E2F74095422348BB80E072
:1003B000089567B341E050E0FA0102C0EE0FFF1F5D
:1003C0003A95E2F79F01262B27BB28B3DC01119653
:1003D0000C9002C0440F551F0A94E2F7422B48BB11
:1003E00080E0089567B341E050E0FA0102C0EE0FEB
:1003F000FF1F3A95E2F79F01262B27BB28B3DC01AC
:1004000011960C9002C0440F551F0A94E2F74095D4
:10041000422348BB80E0089567B341E050E0FA0111
:1004200002C0EE0FFF1F3A95E2F79F01262B27BB74
:1004300028B3DC0111960C9002C0440F551F0A949A
:10044000E2F74095422348BB80E0089567B341E05E
:1004500050E0FA0102C0EE0FFF1F3A95E2F79F014C
:10046000262B27BB28B3DC0111960C9002C0440F49
:10047000551F0A94E2F7422B48BB80E008954E2FA7
:1004800050E04830510508F0B2C1FA01E65CFF4F78
:100490000C94790564B341E050E0FA0102C0EE0F1C
:1004A000FF1F3A95E2F79F01262B24BB25B3DC0101
:1004B00011960C9002C0440F551F0A94E2F7422B8C
:1004C00045BB80E0089564B341E050E0FA0102C00A
:1004D000EE0FFF1F3A95E2F79F01262B24BB25B3B1
:1004E000DC0111960C9002C0440F551F0A94E2F7EC
:1004F0004095422345BB80E0089524B341E050E09D
:10050000BA0102C0660F771F3A95E2F7609526237D
:1005100024BB25B3FC01018002C0440F551F0A947F
:10052000E2F7422B45BB80E0089524B341E050E060
:10053000BA0102C0660F771F3A95E2F7609526234D
:1005400024BB25B3DC0111960C9002C0440F551F4B
:100550000A94E2F74095422345BB80E0089564B3D6
:1005600041E050E0FA0102C0EE0FFF1F3A95E2F7BA
:100570009F01262B24BB25B3DC0111960C9002C0F1
:10058000440F551F0A94E2F7422B45BB80E00895C3
:1005900064B341E050E0FA0102C0EE0FFF1F3A954C
:1005A000E2F79F01262B24BB25B3DC0111960C90AA
:1005B00002C0440F551F0A94E2F74095422345BB01
:1005C00080E0089564B341E050E0FA0102C0EE0F0C
:1005D000FF1F3A95E2F79F01262B24BB25B3DC01D0
:1005E00011960C9002C0440F551F0A94E2F74095F3
:1005F000422345BB80E0089564B341E050E0FA0136
:1006000002C0EE0FFF1F3A95E2F79F01262B24BB95
:1006100025B3DC0111960C9002C0440F551F0A94BB
:10062000E2F7422B45BB80E008954E2F50E0483062
:10063000510508F0DEC0FA01EE5BFF4F0C9479051E
:1006400061B341E050E0FA0102C0EE0FFF1F3A959E
:10065000E2F79F01262B21BB22B3DC0111960C90FF
:1006600002C0440F551F0A94E2F7422B42BB80E0C0
:10067000089561B341E050E0FA0102C0EE0FFF1FA0
:100680003A95E2F79F01262B21BB22B3DC0111969C
:100690000C9002C0440F551F0A94E2F74095422384
:1006A00042BB80E0089521B341E050E0BA0102C0AE
:1006B000660F771F3A95E2F76095262321BB22B398
:1006C000FC01018002C0440F551F0A94E2F7422B3F
:1006D00042BB80E0089521B341E050E0BA0102C07E
:1006E000660F771F3A95E2F76095262321BB22B368
:1006F000DC0111960C9002C0440F551F0A94E2F7DA
:100700004095422342BB80E0089561B341E050E050
:10071000FA0102C0EE0FFF1F3A95E2F79F01262B68
:1007200021BB22B3DC0111960C9002C0440F551F6F
:100730000A94E2F7422B42BB80E0089561B341E0A6
:1007400050E0FA0102C0EE0FFF1F3A95E2F79F0159
:10075000262B21BB22B3DC0111960C9002C0440F62
:10076000551F0A94E2F74095422342BB80E008956A
:1007700061B341E050E0FA0102C0EE0FFF1F3A956D
:10078000E2F79F01262B21BB22B3DC0111960C90CE
:1007900002C0440F551F0A94E2F74095422342BB22
:1007A00080E0089561B341E050E0FA0102C0EE0F2D
:1007B000FF1F3A95E2F79F01262B21BB22B3DC01F4
:1007C00011960C9002C0440F551F0A94E2F7422B79
:1007D00042BB80E0089582E0089583E0089584E0BC
:1007E000089580E0089580E0089580E0089580E015
:0607F000089580E0089569
:1007F600FF920F931F93CF93DF9300D000D000D0CA
:10080600CDB7DEB7F12C80E06BC08F2D90E0FC01F8
:10081600EE0FFF1FE80FF91FDF01A05ABF4F2C9103
:1008260041E050E04C0F5D1FE40FF51F2083119649
:100836002C911197218312962C912130A1F028F04A
:100846002230F9F0233059F137C0FC01EE0FFF1FBB
:10085600E80FF91F21E030E02C0F3D1FE20FF31FD8
:1008660024E0228329C0FC01EE0FFF1FE80FF91FC9
:1008760041E050E04C0F5D1FE40FF51F25E0228399
:100886001BC0FC01EE0FFF1FE80FF91F21E030E04F
:100896002C0F3D1FE20FF31F26E022830DC0FC0143
:1008A600EE0FFF1FE80FF91F41E050E04C0F5D1FF0
:1008B600E40FF51F27E022838C01000F111F800F24
:1008C600911F01E010E00C0F1D1F080F191FC80132
:1008D6000E947800C8010E947800811181E0F3949B
:1008E60051E05F1508F091CF26960FB6F894DEBF5B
:1008F6000FBECDBFDF91CF911F910F91FF9008954D
:10090600FF920F931F93CF93DF9300D000D000D0B8
:10091600CDB7DEB7F12C80E04CC08F2D90E0FC0106
:10092600EE0FFF1FE80FF91FDF01AA59BF4F2C91E9
:1009360041E050E04C0F5D1FE40FF51F2083119638
:100946002C911197218312962C91222319F0213094
:1009560079F01BC0FC01EE0FFF1FE80FF91F21E025
:1009660030E02C0F3D1FE20FF31F22E022830DC063
:10097600FC01EE0FFF1FE80FF91F41E050E04C0F9E
:100986005D1FE40FF51F23E022838C01000F111F6A
:10099600800F911F01E010E00C0F1D1F080F191F9B
:1009A600C8010E947800C8010E947800811181E088
:1009B600F39451E05F1508F0B0CF26960FB6F89481
:1009C600DEBF0FBECDBFDF91CF911F910F91FF907C
:0209D600089582
:1009D8008430D0F56830D0F5813091F028F082303D
:1009E800D9F0833029F134C089B390E002C09595DD
:1009F80087956A95E2F78170FA01808380E008950F
:100A080086B390E002C0959587956A95E2F7817064
:100A1800FA01808380E0089583B390E002C0959541
:100A280087956A95E2F78170FA01808380E00895DE
:100A380080B390E002C0959587956A95E2F781703A
:100A4800FA01808380E0089582E0089583E00895A4
:040A580080E008959D
:100A5C00CF93DF9300D0CDB7DEB781E089838A8353
:100A6C000E94FB030E94830406E610E0AE014F5F78
:100A7C005F4FF801618180810E94EC04AE014E5FF2
:100A8C005F4FF801648183810E94EC04898181119C
:100A9C000EC09AB381E089278ABBFFE32DE083E087
:100AAC00F15020408040E1F700C00000DDCF8A818A
:100ABC008111DACF9AB382E089278ABB9FE3EDE0FC
:100ACC00F3E09150E040F040E1F700C00000CCCFE3
:100ADC00EC010E9484050E948305CE010E948505CD
:060AEC00CE010E9481050D
:0C0AF200EE0FFF1F0590F491E02D099419
:040AFE000C94000054
:040B02000E947600D7
:020B0600089550
:020B080008954E
:020B0A0008954C
:060B0C00000000000100E2
:060B1200010000010100DA
:00000001FF
