:100000000C942A000C94C2020C94C2020C94C202FA
:100010000C94C2020C94C2020C94C2020C94C20250
:100020000C94C2020C94C2020C94C2020C94C20240
:100030000C94C2020C94C2020C94C2020C94C20230
:100040000C94C2020C94C2020C94C2020C94C20220
:100050000C94C20211241FBECFE5D8E0DEBFCDBF95
:0C0060000E9423010C94AD02F894FFCF25
:09006C0020426973686F790000FD
:10007600823029F118F4813039F008958330D1F1B6
:10008600843009F452C00895413061F42AB381E006
:1000960090E002C0880F991F6A95E2F78095822347
:1000A6008ABB089541115BC02AB381E090E002C08B
:1000B600880F991F6A95E2F7822B8ABB0895413013
:1000C60061F427B381E090E002C0880F991F6A951A
:1000D600E2F78095822387BB0895411140C027B37C
:1000E60081E090E002C0880F991F6A95E2F7822BA3
:1000F60087BB0895413061F424B381E090E002C0EB
:10010600880F991F6A95E2F78095822384BB08952C
:10011600411125C024B381E090E002C0880F991FE9
:100126006A95E2F7822B84BB0895413061F421B3CE
:1001360081E090E002C0880F991F6A95E2F78095EA
:10014600822381BB089541110AC021B381E090E06A
:1001560002C0880F991F6A95E2F7822B81BB08952A
:10016600823019F118F4813039F008958330B1F1F5
:10017600843009F44CC00895413059F42BB381E022
:1001860090E002C0880F991F6A95E2F7822B8BBB1D
:1001960008952BB381E090E002C0880F991F6A95FD
:1001A600E2F7809582238BBB0895413059F428B33A
:1001B60081E090E002C0880F991F6A95E2F7822BD2
:1001C60088BB089528B381E090E002C0880F991F8C
:1001D6006A95E2F78095822388BB0895413059F4E9
:1001E60025B381E090E002C0880F991F6A95E2F777
:1001F600822B85BB089525B381E090E002C0880F6D
:10020600991F6A95E2F78095822385BB0895413050
:1002160059F422B381E090E002C0880F991F6A95D5
:10022600E2F7822B82BB089522B381E090E002C000
:10023600880F991F6A95E2F78095822382BB0895FD
:1002460060E083E00E949A0260E081E00E949A02E8
:100256000E94B8020E9468010E94B8026AE080E02B
:100266000E946C026CE670E080E00E945102C0E0E1
:100276000DC081E00E9483022FEF80E792E02150BB
:1002860080409040E1F700C00000CF5FCA3088F39D
:100296000E94B8026AE081E00E946C026CE670E09F
:1002A60080E00E945102C0E00DC081E00E948302FE
:1002B6002FEF80E792E0215080409040E1F700C0A8
:0A02C6000000CF5FCA3088F3C7CFF5
:1002D00060E081E00E942A0240E061E083E00E9449
:1002E0003B0040E060E083E00E943B0040E062E0D1
:1002F00083E00E943B008FE59AEE0197F1F700C082
:1003000000008CE30E94A6018FE99FE00197F1F7BE
:1003100000C000008CE00E94A6018FE99FE00197D9
:10032000F1F700C0000081E00E94A6018FE99FE084
:100330000197F1F700C0000086E00E94A6018FE956
:0C0340009FE00197F1F700C00000089555
:10034C00CF93C82F40E061E083E00E94B30040E00F
:10035C0062E083E00E94B30082E08A95F1F700C06E
:10036C0041E060E083E00E94B30082E08A95F1F7FF
:10037C0000C06C2F81E00E949A0282E08A95F1F70E
:10038C0000C040E060E083E00E94B30082E08A9508
:08039C00F1F700C0CF910895B4
:1003A400CF93C82F40E061E083E00E94B30041E0B6
:1003B40062E083E00E94B30082E08A95F1F700C016
:1003C40041E060E083E00E94B30082E08A95F1F7A7
:1003D40000C06C2F81E00E949A0282E08A95F1F7B6
:1003E40000C040E060E083E00E94B30082E08A95B0
:0803F400F1F700C0CF9108955C
:1003FC00CF93C82F40E061E083E00E94B30040E05F
:10040C0062E083E00E94B30082E08A95F1F700C0BD
:10041C0041E060E083E00E94B30082E08A95F1F74E
:10042C0000C06C2F81E00E949A0282E08A95F1F75D
:10043C0000C040E060E083E00E94B30082E08A9557
:08044C00F1F700C0CF91089503
:10045400823081F018F4813031F00895833089F0CE
:100464008430B1F00895613011F41ABA08958FEF11
:100474008ABB0895613011F417BA08958FEF87BBD2
:100484000895613011F414BA08958FEF84BB089570
:0E049400613011F411BA08958FEF81BB089505
:1004A200CF92DF92EF92CF936B01E82EC0E003C0B0
:1004B2000E94D201CF5FAE2DC6018C0F911DA11DEE
:1004C200FC018491A7FD80818111F2CFCF91EF9041
:0604D200DF90CF900895B9
:1004D800813031F070F0823031F0833039F00AC069
:1004E80090E4960F07C090E1960F04C090E5960F30
:0E04F80001C0962F892F80680E94A6010895EA
:10050600CF93DF93D82FC0E00DC08CE10E94FE018F
:100516002FEF84E39CE0215080409040E1F700C03B
:0E0526000000CF5FCD1788F3DF91CF910895CD
:10053400823059F018F4813031F00895833039F065
:10054400843039F008956BBB089568BB089565BB8A
:06055400089562BB08954A
:10055A00EC010E94C7020E94C602CE010E94C80294
:06056A00CE010E94C40254
:1005700081E00E94FE018FE99FE00197F1F700C042
:0405800000000895DA
:040584000C940000D3
:040588000E94340099
:02058C000895D0
:02058E000895CE
:020590000895CC
:00000001FF
