:100000000C942D000C947A000C947A000C947A00D5
:100010000C947A000C947A000C947A000C947A0078
:100020000C947A000C947A000C947A000C947A0068
:100030000C947A000C947A000C947A000C947A0058
:100040000C947A000C947A000C947A000C947A0048
:100050000C947A0000600061800011241FBECFE57F
:10006000D8E0DEBFCDBFE4E5F0E040E017C0B591D9
:10007000A59135912591059107FD0CC0959185912C
:10008000EF01F92FE82F05900D92A217B307D9F7CA
:10009000FE0104C01D92A217B307E1F7E935F4078A
:0E00A00031F70E9457000C946F00F894FFCFC8
:1000AE008FE08ABB80E18BBB89B382958170809390
:1000BE0060008111F9CF8BB38F5F8BBB2FE38DE087
:1000CE0093E0215080409040E1F700C00000ECCF5B
:1000DE00EC010E947F000E947E00CE010E948000F3
:0600EE00CE010E947C001F
:0400F4000C94000068
:0400F8000E9455000D
:0200FC00089565
:0200FE00089563
:02010000089560
:00000001FF
