:100000000C942A000C94BF000C94BF000C94BF0009
:100010000C94BF000C94BF000C94BF000C94BF0064
:100020000C94BF000C94BF000C94BF000C94BF0054
:100030000C94BF000C94BF000C94BF000C94BF0044
:100040000C94BF000C94BF000C94BF000C94BF0034
:100050000C94BF0011241FBECFE5D8E0DEBFCDBF9A
:10006000E4E5F0E040E017C0B591A5913591259108
:10007000059107FD0CC095918591EF01F92FE82FAF
:1000800005900D92A217B307D9F7FE0104C01D9287
:10009000A217B307E1F7E435F40731F70E948700B0
:0800A0000C94B400F894FFCFAA
:1000A800813059F489B390E002C0959587956A9597
:1000B800E2F78170FA01808324C0823059F486B354
:1000C80090E002C0959587956A95E2F78170FA01EC
:1000D800808317C0833059F483B390E002C09595AC
:1000E80087956A95E2F78170FA0180830AC080B328
:1000F80090E002C0959587956A95E2F78170FA01BC
:06010800808380E00895F1
:10010E00CF93DF930F92CDB7DEB781E089830E9444
:10011E00A700AE014F5F5F4F60E082E00E94540087
:10012E0089818111F6CF8BB38F5F8BBB2FE38DE06F
:10013E0093E0215080409040E1F700C00000E9CFED
:10014E008FE08ABB80EF8BBB17BA8FEF88BB14BAD8
:0A015E0085BB11BA82BB80E0089552
:10016800EC010E94C4000E94C300CE010E94C50099
:06017800CE010E94C1004F
:04017E000C940000DD
:040182000E94520085
:020186000895DA
:020188000895D8
:02018A000895D6
:00000001FF
