:020000040800F2
:100000000050002059100008A9100008A91000088D
:10001000A9100008A9100008A9100008000000009D
:10002000000000000000000000000000A91000080F
:10003000A910000800000000A9100008C508000869
:10004000A9100008A9100008A9100008A9100008AC
:10005000A9100008A91000089D050008C1050008A6
:10006000E5050008090600082D060008A91000088B
:10007000A9100008A9100008A9100008A91000087C
:10008000A9100008A9100008A9100008A91000086C
:10009000E507000809080008A9100008A9100008D1
:1000A000A9100008C10B0008A9100008A910000839
:1000B000490B0008710B0008990B0008A9100008F3
:1000C000A9100008A9100008A9100008A91000082C
:1000D000A9100008790700089D070008C10700085B
:1000E000A9100008A910000800000000A9100008CD
:1000F000A9100008A9100008A9100008A9100008FC
:10010000A9100008A9100008A9100008A9100008EB
:10011000A9100008A9100008A9100008A9100008DB
:10012000A9100008A9100008A9100008A9100008CB
:1001300010B5054C237833B9044B13B10448AFF321
:1001400000800123237010BD080000200000000083
:10015000F410000808B5034B1BB103490348AFF383
:10016000008008BD000000000C000020F410000812
:1001700080B400AF0F4B104A1A600E4B0F4A5A6002
:100180000F4B4FF022321A600D4B4FF022325A6063
:100190000C4B0D4A5A60074B0022DA60084B0022D4
:1001A000DA60084B4FF40052DA6000BFBD4680BCF5
:1001B000704700BF0008014044242222A2442B22A1
:1001C000000C0140001001400000202280B485B0E6
:1001D00000AF0346FB710B46BB7113467B710023D6
:1001E000FB73BB790F2B73D87B79012B33D1FB7950
:1001F000022B1CD0022B2BDC002B02D0012B0BD0AE
:1002000026E0374BDB68BA79012101FA02F2114688
:10021000334A0B43D3605DE0324BDB68BA7901218E
:1002200001FA02F211462F4A0B43D36052E0BB7928
:100230000C2B0AD92C4BDB68BA79012101FA02F2A6
:100240001146294A0B43D36044E00123FB7341E08C
:100250000123FB733EE07B79002B36D1FB79022B27
:100260001ED0022B2EDC002B02D0012B0CD029E05B
:100270001B4BDB68BA79012101FA02F2D243114625
:10028000174A0B40D36025E0164BDB68BA79012191
:1002900001FA02F2D2431146124A0B40D36019E030
:1002A000BB790C2B0BD9104BDB68BA79012101FA11
:1002B00002F2D24311460C4A0B40D3600AE00123FC
:1002C000FB7307E00123FB7304E00123FB7301E0F0
:1002D0000123FB73FB7B18461437BD4680BC704777
:1002E00000080140000C01400010014080B500AF43
:1002F0000121002000F07CF80121102000F078F8A6
:100300000121182000F074F8384B5B68374A23F05D
:1003100003035360354B354A5B685360334B1B68AE
:10032000324A23F002031360304B5B682F4A23F4F8
:10033000E06353602D4B2D4A5B6853602B4B5B6829
:100340002A4A23F460535360284B284A5B68536061
:10035000264B5B68254A23F0F0035360234B234A66
:100360005B685360214B5B68204A23F48013536021
:100370001E4B1E4A5B68536000F0DEF81B4B9B6906
:100380001A4A43F480439361184B9B69174A43F41C
:1003900000639361154B9B69144A43F400739361A6
:1003A000124B9B69114A43F0100393610F4B9B69F9
:1003B0000E4A43F0080393610C4B9B690B4A43F0D0
:1003C00004039361094BDB69084A43F00073D3616E
:1003D000064BDB69054A43F40003D361034BDB6939
:1003E000024A43F00103D36100BF80BD0010024008
:1003F00080B485B000AF03460A46FB711346BB715B
:100400000023FB73BB79012B42D1FB79182B2AD037
:10041000182B3ADC002B02D0102B12D035E0454BC4
:100420001B68FA79012101FA02F21146414A0B4395
:10043000136000BF3F4B1B6803F00203002BF9D091
:1004400071E03C4B1B68FA79012101FA02F2114676
:10045000384A0B43136000BF364B1B6803F400336C
:10046000002BF9D05FE0334B1B68FA79012101FAC8
:1004700002F211462F4A0B43136000BF2D4B1B683D
:1004800003F00073002BF9D04DE00123FB734AE029
:10049000BB79002B45D1FB79182B2CD0182B3DDCD8
:1004A000002B02D0102B13D038E0224B1B68FA79B6
:1004B000012101FA02F2D24311461E4A0B40136099
:1004C00000BF1C4B1B6803F00203002BF9D12AE08C
:1004D000184B1B68FA79012101FA02F2D243114646
:1004E000144A0B40136000BF124B1B6803F4003327
:1004F000002BF9D117E00F4B1B68FA79012101FAA3
:1005000002F2D24311460B4A0B40136000BF094B65
:100510001B6803F00073002BF9D104E00123FB7387
:1005200001E00123FB73FB7B18461437BD4680BCFA
:10053000704700BF0010024080B483B000AF144B7E
:100540001B681B0A43F0FF037B607B68114A9342E0
:1005500018D07B68FB70FB780F4AA2FB03235B0972
:10056000FB700B4B1B68DB08DBB243F01F03DBB2F5
:100570002833BB70064B1B68BA78D2001146044A78
:100580000B43136000BF0C37BD4680BC704700BFF3
:100590000010024000127A00CDCCCCCC80B500AF68
:1005A000054B1B689847054B5B69044A43F0010300
:1005B000536100BF80BD00BF240000200004014043
:1005C00080B500AF054B5B689847054B5B69044AF3
:1005D00043F00203536100BF80BD00BF2400002030
:1005E0000004014080B500AF054B9B689847054B60
:1005F0005B69044A43F00403536100BF80BD00BF40
:10060000240000200004014080B500AF054BDB68EA
:100610009847054B5B69044A43F00803536100BFE8
:1006200080BD00BF240000200004014080B500AF61
:10063000054B1B699847054B5B69044A43F010035F
:10064000536100BF80BD00BF2400002000040140B2
:1006500080B483B000AF0346FB71FB79022B0AD054
:10066000022B0ADC002B02D0012B02D005E0064B46
:1006700004E0064B02E0064B00E0034B18460C3743
:10068000BD4680BC704700BF0038014000440040B8
:100690000048004080B584B000AF0346FB71FB7991
:1006A0001846FFF7D5FFF860FB6840F241329A60C8
:1006B000FB68DB6843F40052FB68DA60FB68DB68C8
:1006C00043F00802FB68DA60FB68DB6843F0040271
:1006D000FB68DA60FB6800221A6000BF1037BD4675
:1006E00080BD000080B485B000AF03463960FB7167
:1006F000FB79124A52F82330BB600023FB7310E0F1
:10070000FB7B3A6813441B781A46BB685A6000BFEB
:10071000BB681B6803F04003002BF9D0FB7B01335F
:10072000FB73FB7B3A6813441B78002BE8D100BFB6
:1007300000BF1437BD4680BC704700BF10110008D1
:1007400080B584B000AF0346FB71FB791846FFF714
:100750007FFFF86000BFFB681B6803F02003002BDD
:10076000F9D0FB685B68FB7200F060F8FB7A184612
:100770001037BD4680BD000080B500AF0020FFF7F8
:1007800067FF0346DB6803F02003002B02D0024B17
:100790001B68984700BF80BD3800002080B500AFBF
:1007A0000120FFF755FF0346DB6803F02003002B11
:1007B00002D0024B5B68984700BF80BD3800002024
:1007C00080B500AF0220FFF743FF0346DB6803F06C
:1007D0002003002B02D0024B9B68984700BF80BDCE
:1007E0003800002080B500AF054BDB6803F0030341
:1007F000002B02D0034B1B68984700BF80BD00BF91
:10080000006400404400002080B500AF054B1B6928
:1008100003F00303002B02D0034B5B68984700BF33
:1008200080BD00BF006400404400002080B400AFE1
:10083000074B1B68064A23F001031360044B002298
:100840005A60034B00229A6000BFBD4680BC7047CF
:1008500010E000E080B485B000AF7860396000231C
:10086000FB733B68002B1ED07B684FF47A7202FB4F
:1008700003F3BB60104ABB6853600F4B00229A60C1
:100880000D4B1B680C4A43F0010313600B4A3B6895
:1008900013600B4B00221A60074B1B68064A43F09B
:1008A0000203136001E00123FB73FB7B184614373E
:1008B000BD4680BC704700BF10E000E04C00002047
:1008C0005000002080B582B000AF0023FB71164BB2
:1008D0001B780133DAB2144B1A70134B1B78022BBE
:1008E0001AD1124B1B68002B0BD1114B1B68104AFD
:1008F00023F0010313600E4B00225A600C4B0022C0
:100900009A600C4B1B689847094B1B681B0CDBB2A9
:1009100003F00103FB7102E0054B00229A6000BF67
:100920000837BD4680BD00BF5400002050000020A5
:1009300010E000E04C00002080B400AF094B002222
:100940001A60084B1B69DB0903F00103012B05D179
:10095000044B054A5A60034B044A5A6000BFBD4627
:1009600080BC70470020024023016745AB89EFCD72
:1009700080B485B000AF0346FB710023FB73FB79A5
:10098000402B2CD800BF1A4BDB6803F00103012B6E
:10099000F9D0174B1B69164A43F002031361FB7928
:1009A0009B02134A03F100635361114B1B69104A08
:1009B00043F04003136100BF0D4BDB6803F00103FC
:1009C000012BF9D00A4BDB68094A43F02003D360BE
:1009D000074B1B69064A23F00203136101E0012360
:1009E000FB73FB7B18461437BD4680BC704700BFC5
:1009F0000020024080B487B000AFF860B9601346B1
:100A0000FB7100BF1C4BDB6803F00103012BF9D025
:100A10000023FB7525E0184B1B69174A43F00103BF
:100A20001361FB7D5B00BA681A44FB6812881A8068
:100A300000BF114BDB6803F00103012BF9D00E4B13
:100A4000DB680D4A43F02003D3600B4B1B690A4A55
:100A500023F001031361FB680233FB60FB7D01336C
:100A6000FB75FA7DFB799A42D5D300BF00BF1C37D6
:100A7000BD4680BC704700BF0020024080B483B0F8
:100A800000AF0346FB801A4B45F255521A6000BF77
:100A9000174BDB6803F00103002BF9D1144B5B68A3
:100AA000134A23F007035360114B114A5B685360EC
:100AB00000BF0F4BDB6803F00203002BF9D1FB886A
:100AC000B3F5805F03D20A4AFB88936003E0084BCA
:100AD00040F6FF729A60064B4AF6AA221A60044B4F
:100AE0004CF6CC421A6000BF0C37BD4680BC704744
:100AF0000030004080B483B000AF0346FB71FB7947
:100B0000032B14D801A252F823F000BF1D0B0008DC
:100B1000210B0008270B00082B0B0008074B08E0EF
:100B20004FF0804305E0064B03E0064B01E04FF039
:100B3000804318460C37BD4680BC7047002C0140EE
:100B4000000400400008004080B582B000AF0120E2
:100B5000FFF7D0FF7860054B1B6898477B68002241
:100B60001A6100BF0837BD4680BD00BF5800002095
:100B700080B582B000AF0220FFF7BCFF7860054B64
:100B80001B6898477B6800221A6100BF0837BD4682
:100B900080BD00BF5C00002080B582B000AF0320A4
:100BA000FFF7A8FF7860054B1B6898477B68002219
:100BB0001A6100BF0837BD4680BD00BF600000203D
:100BC00080B483B000AFFB790133FB7100BF0C37F9
:100BD000BD4680BC704780B582B000AF78607B684E
:100BE0009B78012B08D17B6818787B685B780122A1
:100BF0001946FFF7EBFA07E07B6818787B685B78AB
:100C000000221946FFF7E2FA00BF0837BD4680BD53
:100C100080B485B000AF0346FB71FB792F2B06D95A
:100C2000FB79392B03D8FB79303BFB7302E0FB796E
:100C3000373BFB73FB7B18461437BD4680BC7047BF
:100C400080B586B000AF78607B6808331B78302BA6
:100C500040F0A2807B6801331B781846FFF7D8FF6D
:100C60000346BB757B6802331B781846FFF7D0FF3D
:100C700003467B75BB7D1B015AB297F915301343B0
:100C80005BB23B757B6803331B781846FFF7C0FFE8
:100C90000346FB747B6804331B781846FFF7B8FFE4
:100CA0000346BB747B6805331B781846FFF7B0FF1B
:100CB00003467B747B6806331B781846FFF7A8FF52
:100CC00003463B74364B1B681B0C1B04344A1360F1
:100CD0003A7C334B1B6813437A7C12011343BA7C72
:100CE00012021343FA7C12031343FB600023FB75CB
:100CF00044E0FB7D9B0009337A6813441B78184657
:100D0000FFF786FF0346FB72FB7D9B000A337A6880
:100D100013441B781846FFF77BFF0346BB72FB7D2D
:100D20009B000B337A6813441B781846FFF770FF5B
:100D300003467B72FB7D9B000C337A6813441B785F
:100D40001846FFF765FF03463B72FB7A1B011AB298
:100D5000BB7A1BB213431AB27B7A1B031BB2134339
:100D60001AB23B7A1B021BB213431AB2FB7D91B23B
:100D70000C4A22F81310FB7D0133FB753B7D5B08A9
:100D8000DBB2FA7D9A42B4D33B7D5B08DBB21A46F4
:100D90000449F868FFF72EFE00BF1837BD4680BD36
:100DA000000000206400002080B400AF064B5B6AA6
:100DB000054A43F080735362044B054A1A6000BF32
:100DC000BD4680BC704700BF001002400CED00E043
:100DD0000400FA0580B500AF0F20FFF7C9FD01221E
:100DE00003490448FFF706FEFFF7DEFF00BF80BDA2
:100DF0002C010020003C000880B5A2B000AFFFF736
:100E000075FAFFF7B5F90020FFF744FC804942F27C
:100E10001070FFF71FFDFFF78FFD7E4A07F1680393
:100E20001268114619800233120C1A7007F1680318
:100E30001846FFF7D0FE6F23A7F86430002387F829
:100E400087300023C7F880300023FB67002387F832
:100E50007B3001237B6701233B676F4B1A886F4B05
:100E60001B889A4240F0C780C0E00020FFF768FC72
:100E7000034619463A46D7F8803013440A461A709A
:100E8000634942F21070FFF7E5FC3A46D7F880302C
:100E900013441B780A2B40F0A4803B6F012B0FD129
:100EA0001423FB6707E0FB6FDBB21846FFF760FD1A
:100EB000FB6F0133FB67FB6F3B2BF4D900233B67D0
:100EC000002387F87B3001237B6729E03A467B6F5C
:100ED00013441B781846FFF79BFE034687F86F30D4
:100EE0007B6F013388333B4413F8883C1846FFF787
:100EF0008FFE034687F86E3097F86F301B015AB2A9
:100F000097F96E3013435BB287F86C3097F87B200B
:100F100097F86C30134487F87B307B6F02337B6724
:100F2000D7F88030023B7A6F9A42CFD397F87B3064
:100F30005B4287F87B30D7F88030023B88333B44F4
:100F400013F8883C1846FFF763FE034687F86F30B6
:100F5000D7F88030013B88333B4413F8883C18466F
:100F6000FFF756FE034687F86E3097F86F301B0187
:100F70005AB297F96E3013435BB287F86D3097F829
:100F80007B2097F86D309A420CD00122042100207A
:100F9000FFF71CF90F20FFF7EBFC01222049214845
:100FA000FFF728FD3B461846FFF74AFE07F16403AA
:100FB00019460020FFF796FB0023C7F880303B7AE4
:100FC000312B13D10F20FFF7D3FC0122164915480E
:100FD000FFF710FD6420FFF751FD012387F88730EC
:100FE00004E0D7F880300133C7F8803097F88730B5
:100FF000002B3FF43AAF084B1A880B4B1B889A42E0
:1010000001D100F013F800BF8837BD4680BD00BF96
:10101000D50D00080C110008003C00080400002059
:1010200006000020003C00082C01002080B500AF25
:10103000054B064A1A60064B1B68064A1360054BAF
:101040001B68984700BF80BD08ED00E00050000815
:1010500004500008300100200D488546AFF30080A1
:101060000C480D490D4A002302E0D458C450043303
:10107000C4188C42F9D30A4A0A4C002301E01360D9
:101080000432A242FBD300F011F8FFF7B5FEFEE7F1
:10109000005000200000002008000020241100085B
:1010A0000800002034010020FEE7000070B5002693
:1010B0000C4D0D4C641BA410A64209D100F01AF887
:1010C00000260A4D0A4C641BA410A64205D170BD2F
:1010D00055F8043B98470136EEE755F8043B98472E
:1010E0000136F2E71C1100081C1100081C11000851
:1010F00020110008F8B500BFF8BC08BC9E46704738
:0C110000F8B500BFF8BC08BC9E46704764
:10110C000004010000380140004400400048004049
:04111C005501000871
:041120003101000891
:081124000000000801000200B8
:043C000001000000BF
:040000050800105986
:00000001FF
