:020000040800F2
:1000000000500020D10E0008210F0008210F000829
:10001000210F0008210F0008210F00080000000038
:10002000000000000000000000000000210F000898
:10003000210F000800000000210F00082908000817
:10004000210F0008210F0008210F0008210F0008D0
:10005000210F0008210F00089D050008C1050008B8
:10006000E5050008090600082D060008210F000814
:10007000210F0008210F0008210F0008210F0008A0
:10008000210F0008210F0008210F0008210F000890
:10009000E107000805080008210F0008210F0008EB
:1000A000210F00088D0A0008210F0008210F000809
:1000B000150A00083D0A0008650A0008210F00081B
:1000C000210F0008210F0008210F0008210F000850
:1000D000210F00087507000899070008BD070008F0
:1000E000210F0008210F000800000000210F000868
:1000F000210F0008210F0008210F0008210F000820
:10010000210F0008210F0008210F0008210F00080F
:10011000210F0008210F0008210F0008210F0008FF
:10012000210F0008210F0008210F0008210F0008EF
:1001300010B5054C237833B9044B13B10448AFF321
:1001400000800123237010BD040000200000000087
:100150006C0F000808B5034B1BB103490348AFF30C
:10016000008008BD00000000080000206C0F00089F
:1001700080B400AF0F4B104A1A600E4B0F4A5A6002
:100180000F4B4FF022321A600D4B4FF022325A6063
:100190000C4B0D4A5A60074B0022DA60084B0022D4
:1001A000DA60084B4FF40052DA6000BFBD4680BCF5
:1001B000704700BF0008014044242222A2442B22A1
:1001C000000C0140001001400000202280B485B0E6
:1001D00000AF0346FB710B46BB7113467B710023D6
:1001E000FB73BB790F2B73D87B79012B33D1FB7950
:1001F000022B1CD0022B2BDC002B02D0012B0BD0AE
:1002000026E0374BDB68BA79012101FA02F2114688
:10021000334A0B43D3605DE0324BDB68BA7901218E
:1002200001FA02F211462F4A0B43D36052E0BB7928
:100230000C2B0AD92C4BDB68BA79012101FA02F2A6
:100240001146294A0B43D36044E00123FB7341E08C
:100250000123FB733EE07B79002B36D1FB79022B27
:100260001ED0022B2EDC002B02D0012B0CD029E05B
:100270001B4BDB68BA79012101FA02F2D243114625
:10028000174A0B40D36025E0164BDB68BA79012191
:1002900001FA02F2D2431146124A0B40D36019E030
:1002A000BB790C2B0BD9104BDB68BA79012101FA11
:1002B00002F2D24311460C4A0B40D3600AE00123FC
:1002C000FB7307E00123FB7304E00123FB7301E0F0
:1002D0000123FB73FB7B18461437BD4680BC704777
:1002E00000080140000C01400010014080B500AF43
:1002F0000121002000F07CF80121102000F078F8A6
:100300000121182000F074F8384B5B68374A23F05D
:1003100003035360354B354A5B685360334B1B68AE
:10032000324A23F002031360304B5B682F4A23F4F8
:10033000E06353602D4B2D4A5B6853602B4B5B6829
:100340002A4A23F460535360284B284A5B68536061
:10035000264B5B68254A23F0F0035360234B234A66
:100360005B685360214B5B68204A23F48013536021
:100370001E4B1E4A5B68536000F0DEF81B4B9B6906
:100380001A4A43F480439361184B9B69174A43F41C
:1003900000639361154B9B69144A43F400739361A6
:1003A000124B9B69114A43F0100393610F4B9B69F9
:1003B0000E4A43F0080393610C4B9B690B4A43F0D0
:1003C00004039361094BDB69084A43F00073D3616E
:1003D000064BDB69054A43F40003D361034BDB6939
:1003E000024A43F00103D36100BF80BD0010024008
:1003F00080B485B000AF03460A46FB711346BB715B
:100400000023FB73BB79012B42D1FB79182B2AD037
:10041000182B3ADC002B02D0102B12D035E0454BC4
:100420001B68FA79012101FA02F21146414A0B4395
:10043000136000BF3F4B1B6803F00203002BF9D091
:1004400071E03C4B1B68FA79012101FA02F2114676
:10045000384A0B43136000BF364B1B6803F400336C
:10046000002BF9D05FE0334B1B68FA79012101FAC8
:1004700002F211462F4A0B43136000BF2D4B1B683D
:1004800003F00073002BF9D04DE00123FB734AE029
:10049000BB79002B45D1FB79182B2CD0182B3DDCD8
:1004A000002B02D0102B13D038E0224B1B68FA79B6
:1004B000012101FA02F2D24311461E4A0B40136099
:1004C00000BF1C4B1B6803F00203002BF9D12AE08C
:1004D000184B1B68FA79012101FA02F2D243114646
:1004E000144A0B40136000BF124B1B6803F4003327
:1004F000002BF9D117E00F4B1B68FA79012101FAA3
:1005000002F2D24311460B4A0B40136000BF094B65
:100510001B6803F00073002BF9D104E00123FB7387
:1005200001E00123FB73FB7B18461437BD4680BCFA
:10053000704700BF0010024080B483B000AF144B7E
:100540001B681B0A43F0FF037B607B68114A9342E0
:1005500018D07B68FB70FB780F4AA2FB03235B0972
:10056000FB700B4B1B68DB08DBB243F01F03DBB2F5
:100570002833BB70064B1B68BA78D2001146044A78
:100580000B43136000BF0C37BD4680BC704700BFF3
:100590000010024000127A00CDCCCCCC80B500AF68
:1005A000054B1B689847054B5B69044A43F0010300
:1005B000536100BF80BD00BF200000200004014047
:1005C00080B500AF054B5B689847054B5B69044AF3
:1005D00043F00203536100BF80BD00BF2000002034
:1005E0000004014080B500AF054B9B689847054B60
:1005F0005B69044A43F00403536100BF80BD00BF40
:10060000200000200004014080B500AF054BDB68EE
:100610009847054B5B69044A43F00803536100BFE8
:1006200080BD00BF200000200004014080B500AF65
:10063000054B1B699847054B5B69044A43F010035F
:10064000536100BF80BD00BF2000002000040140B6
:1006500080B483B000AF0346FB71FB79022B0AD054
:10066000022B0ADC002B02D0012B02D005E0064B46
:1006700004E0064B02E0064B00E0034B18460C3743
:10068000BD4680BC704700BF0038014000440040B8
:100690000048004080B584B000AF0346FB71FB7991
:1006A0001846FFF7D5FFF860FB6840F241329A60C8
:1006B000FB68DB6843F40052FB68DA60FB68DB68C8
:1006C00043F00802FB68DA60FB68DB6843F0040271
:1006D000FB68DA60FB6800221A6000BF1037BD4675
:1006E00080BD000080B485B000AF03463960FB7167
:1006F000FB79124A52F82330BB600023FB7310E0F1
:10070000FB7B3A6813441B781A46BB685A6000BFEB
:10071000BB681B6803F04003002BF9D0FB7B01335F
:10072000FB73FB7B3A6813441B78002BE8D100BFB6
:1007300000BF1437BD4680BC704700BF880F00085B
:1007400080B584B000AF0346FB71FB791846FFF714
:100750007FFFF86000BFFB681B6803F02003002BDD
:10076000F9D0FB685B68FB72FB7A18461037BD4610
:1007700080BD000080B500AF0020FFF769FF034691
:10078000DB6803F02003002B02D0024B1B68984764
:1007900000BF80BD3400002080B500AF0120FFF70E
:1007A00057FF0346DB6803F02003002B02D0024B07
:1007B0005B68984700BF80BD3400002080B500AF63
:1007C0000220FFF745FF0346DB6803F02003002B00
:1007D00002D0024B9B68984700BF80BD34000020C8
:1007E00080B500AF054BDB6803F00303002B02D09C
:1007F000034B1B68984700BF80BD00BF00640040EA
:100800004000002080B500AF054B1B6903F00303D7
:10081000002B02D0034B5B68984700BF80BD00BF30
:10082000006400404000002080B582B000AF00238B
:10083000FB710F4B1B68002B0BD10E4B1B680D4A35
:1008400023F0010313600B4B00225A60094B002276
:100850009A60094B1B689847064B1B681B0CDBB260
:1008600003F00103FB7100BF0837BD4680BD00BF28
:100870004C00002010E000E04800002080B400AFF1
:10088000094B00221A60084B1B69DB0903F00103C6
:10089000012B05D1044B054A5A60034B044A5A60A8
:1008A00000BFBD4680BC7047002002402301674561
:1008B000AB89EFCD80B485B000AF0346FB71002358
:1008C000FB73FB79402B2CD800BF1A4BDB6803F07D
:1008D0000103012BF9D0174B1B69164A43F00203A1
:1008E0001361FB799B02134A03F100635361114BBF
:1008F0001B69104A43F04003136100BF0D4BDB68D6
:1009000003F00103012BF9D00A4BDB68094A43F0DD
:100910002003D360074B1B69064A23F002031361CF
:1009200001E00123FB73FB7B18461437BD4680BCF6
:10093000704700BF0020024080B487B000AFF8606D
:10094000B9601346FB7100BF1C4BDB6803F0010369
:10095000012BF9D00023FB7525E0184B1B69174AC2
:1009600043F001031361FB7D5B00BA681A44FB6826
:1009700012881A8000BF114BDB6803F00103012BC2
:10098000F9D00E4BDB680D4A43F02003D3600B4BCC
:100990001B690A4A23F001031361FB680233FB6001
:1009A000FB7D0133FB75FA7DFB799A42D5D300BFFD
:1009B00000BF1C37BD4680BC704700BF002002400E
:1009C00080B483B000AF0346FB71FB79032B14D8CE
:1009D00001A252F823F000BFE9090008ED09000860
:1009E000F3090008F7090008074B08E04FF08043BF
:1009F00005E0064B03E0064B01E04FF0804318464C
:100A00000C37BD4680BC7047002C014000040040FC
:100A10000008004080B582B000AF0120FFF7D0FF92
:100A20007860054B1B6898477B6800221A6100BFFD
:100A30000837BD4680BD00BF5000002080B582B0A1
:100A400000AF0220FFF7BCFF7860054B1B6898479A
:100A50007B6800221A6100BF0837BD4680BD00BF19
:100A60005400002080B582B000AF0320FFF7A8FF3C
:100A70007860054B1B6898477B6800221A6100BFAD
:100A80000837BD4680BD00BF5800002080B483B049
:100A900000AFFB790133FB7100BF0C37BD4680BC52
:100AA000704780B582B000AF78607B689B78012B7F
:100AB00008D17B6818787B685B7801221946FFF7BC
:100AC00085FB07E07B6818787B685B780022194615
:100AD000FFF77CFB00BF0837BD4680BD80B485B002
:100AE00000AF0346FB71FB792F2B06D9FB79392B1D
:100AF00003D8FB79303BFB7302E0FB79373BFB7398
:100B0000FB7B18461437BD4680BC704780B586B065
:100B100000AF78607B6808331B78302B40F0A280F0
:100B20007B6801331B781846FFF7D8FF0346BB7577
:100B30007B6802331B781846FFF7D0FF03467B75AE
:100B4000BB7D1B015AB297F9153013435BB23B755D
:100B50007B6803331B781846FFF7C0FF0346FB741E
:100B60007B6804331B781846FFF7B8FF0346BB7455
:100B70007B6805331B781846FFF7B0FF03467B748C
:100B80007B6806331B781846FFF7A8FF03463B74C3
:100B9000364B1B681B0C1B04344A13603A7C334BE6
:100BA0001B6813437A7C12011343BA7C120213436D
:100BB000FA7C12031343FB600023FB7544E0FB7DCA
:100BC0009B0009337A6813441B781846FFF786FFA9
:100BD0000346FB72FB7D9B000A337A6813441B7843
:100BE0001846FFF77BFF0346BB72FB7D9B000B3370
:100BF0007A6813441B781846FFF770FF03467B7230
:100C0000FB7D9B000C337A6813441B781846FFF772
:100C100065FF03463B72FB7A1B011AB2BB7A1BB21B
:100C200013431AB27B7A1B031BB213431AB23B7AEB
:100C30001B021BB213431AB2FB7D91B20C4A22F87D
:100C40001310FB7D0133FB753B7D5B08DBB2FA7D46
:100C50009A42B4D33B7D5B08DBB21A460449F8687C
:100C6000FFF76AFE00BF1837BD4680BD00000020B8
:100C70005C00002080B5A4B000AFFFF737FBFFF7A2
:100C800077FA0020FFF706FDFFF7F8FD0123A7F82C
:100C900076300023A7F870300223A7F86E307E4A22
:100CA00007F168031268114619800233120C1A709A
:100CB00007F168031846FFF7F4FE6F23A7F86430C6
:100CC000002387F88F300023C7F888300023C7F847
:100CD0008430002387F883300123FB670123BB673F
:100CE0006E4B1B88B7F876209A4240F0C880C1E06E
:100CF0000020FFF725FD034619463A46D7F888300D
:100D000013440A461A703A46D7F8883013441B78C1
:100D10000A2B40F0AA80BB6F012B14D11423C7F813
:100D200084300AE0D7F88430DBB21846FFF7C2FD02
:100D3000D7F884300133C7F88430D7F884303B2BA0
:100D4000F0D90023BB67002387F883300123FB67BA
:100D500029E03A46FB6F13441B781846FFF7BEFEA6
:100D6000034687F87530FB6F013390333B4413F82B
:100D7000903C1846FFF7B2FE034687F8743097F8A8
:100D800075301B015AB297F9743013435BB287F880
:100D9000723097F8832097F87230134487F88330C5
:100DA000FB6F0233FB67D7F88830023BFA6F9A4239
:100DB000CFD397F883305B4287F88330D7F88830F9
:100DC000023B90333B4413F8903C1846FFF786FEF5
:100DD000034687F87530D7F88830013B90333B44A1
:100DE00013F8903C1846FFF779FE034687F87430F5
:100DF00097F875301B015AB297F9743013435BB200
:100E000087F8733097F8832097F873309A420ED0A2
:100E1000012204210020FFF7D9F90F20FFF74AFD36
:100E200007F16E03012219461D48FFF785FD3B4679
:100E30001846FFF76BFE07F1640319460020FFF721
:100E400051FC0023C7F888303B7A312B12D10F2098
:100E5000FFF730FD07F17003012219461048FFF734
:100E60006BFD012387F88F3004E0D7F88830013319
:100E7000C7F8883097F88F30002B3FF439AF074B15
:100E80001A88B7F870309A4201D100F00BF800BF11
:100E90009037BD4680BD00BF840F0008003C0008AD
:100EA000003C000880B500AF054B064A1A60064BAF
:100EB0001B68064A1360054B1B68984700BF80BD3E
:100EC00008ED00E000500008045000082401002054
:100ED0000D488546AFF300800C480D490D4A0023AC
:100EE00002E0D458C4500433C4188C42F9D30A4ADF
:100EF0000A4C002301E013600432A242FBD300F04D
:100F000011F8FFF7B7FEFEE70050002000000020B8
:100F1000040000209C0F000804000020280100208D
:100F2000FEE7000070B500260C4D0D4C641BA410AC
:100F3000A64209D100F01AF800260A4D0A4C641B9B
:100F4000A410A64205D170BD55F8043B9847013660
:100F5000EEE755F8043B98470136F2E7940F000896
:100F6000940F0008940F0008980F0008F8B500BF10
:100F7000F8BC08BC9E467047F8B500BFF8BC08BC7A
:040F80009E467047D2
:100F840000040100003801400044004000480040D3
:040F940055010008FB
:040F9800310100081B
:040F9C000000000849
:043C000001000000BF
:0400000508000ED110
:00000001FF
