:100000000C942A000C94AD010C94AD010C94AD013C
:100010000C94AD010C94AD010C94AD010C94AD01A8
:100020000C94AD010C94AD010C94AD010C94AD0198
:100030000C94AD010C94AD010C94AD010C94AD0188
:100040000C94AD010C94AD010C94AD010C94AD0178
:100050000C94AD0111241FBECFE5D8E0DEBFCDBFAB
:0C0060000E946B010C94A201F894FFCFE9
:10006C00843008F0E0C0683008F0DFC0433008F09E
:10007C00DEC08130E1F138F0823009F46CC083309D
:10008C0009F49DC0D6C0413081F018F04230F1F037
:10009C00D2C02AB381E090E002C0880F991F6A9504
:1000AC00E2F7822B8ABB80E008952AB381E090E0CE
:1000BC0002C0880F991F6A95E2F7982F90959223AA
:1000CC009ABB9BB3892B8BBB80E008952AB381E04C
:1000DC0090E002C0880F991F6A95E2F78095922FE5
:1000EC0098239ABB9BB389238BBB80E00895413046
:1000FC0081F018F04230F1F0A0C027B381E090E01D
:10010C0002C0880F991F6A95E2F7822B87BB80E0AB
:10011C00089527B381E090E002C0880F991F6A957B
:10012C00E2F7982F9095922397BB98B3892B88BBB5
:10013C0080E0089527B381E090E002C0880F991FFA
:10014C006A95E2F78095922F982397BB98B38923F1
:10015C0088BB80E00895413081F018F04230F1F016
:10016C006EC024B381E090E002C0880F991F6A959D
:10017C00E2F7822B84BB80E0089524B381E090E009
:10018C0002C0880F991F6A95E2F7982F90959223D9
:10019C0094BB95B3892B85BB80E0089524B381E093
:1001AC0090E002C0880F991F6A95E2F78095922F14
:1001BC00982394BB95B3892385BB80E00895413087
:1001CC0081F018F04230F1F03CC021B381E090E0B6
:1001DC0002C0880F991F6A95E2F7822B81BB80E0E1
:1001EC00089521B381E090E002C0880F991F6A95B1
:1001FC00E2F7982F9095922391BB92B3892B82BBF7
:10020C0080E0089521B381E090E002C0880F991F2F
:10021C006A95E2F78095922F982391BB92B389232C
:10022C0082BB80E0089582E0089583E0089584E025
:10023C00089580E0089580E0089580E0089580E0BE
:06024C00089580E0089512
:100252008430D0F56830D0F5813091F028F08230CA
:10026200D9F0833029F134C089B390E002C095956A
:1002720087956A95E2F78170FA01808380E008959C
:1002820086B390E002C0959587956A95E2F78170F2
:10029200FA01808380E0089583B390E002C09595CF
:1002A20087956A95E2F78170FA01808380E008956C
:1002B20080B390E002C0959587956A95E2F78170C8
:1002C200FA01808380E0089582E0089583E0089532
:0402D20080E008952B
:1002D600CF93DF930F92CDB7DEB781E0898340E0FD
:1002E60060E080E00E94360040E061E080E00E942D
:1002F600360040E062E080E00E94360040E063E0C5
:1003060080E00E94360041E060E081E00E94360015
:10031600AE014F5F5F4F60E081E00E942901898155
:100326008111F6CF8BB38F5F8BBB2FE38DE093E00C
:0E033600215080409040E1F700C00000E9CF68
:10034400EC010E94B2010E94B101CE010E94B301EE
:06035400CE010E94AF0182
:04035A000C940000FF
:04035E000E943400C5
:020362000895FC
:020364000895FA
:020366000895F8
:00000001FF
