:020000040800F2
:1050000000500020A9550008F9550008F95500087E
:10501000F9550008F9550008F9550008000000008E
:10502000000000000000000000000000F95500082A
:10503000F955000800000000F9550008C95400089F
:10504000F9550008F9550008F9550008F955000808
:10505000F9550008F9550008C5530008E153000848
:10506000FD5300081954000835540008F95500088C
:10507000F9550008F9550008F9550008F9550008D8
:10508000F9550008F9550008F9550008F9550008C8
:1050900099540008B1540008F9550008F955000862
:1050A000F955000861550008F9550008F955000840
:1050B000195500083155000849550008F9550008F0
:1050C000F9550008F9550008F9550008F955000888
:1050D000F95500085154000869540008815400082B
:1050E000F9550008F955000800000000F9550008BE
:1050F000F9550008F9550008F9550008F955000858
:10510000F9550008F9550008F9550008F955000847
:10511000F9550008F9550008F9550008F955000837
:10512000F9550008F9550008F9550008F955000827
:1051300010B5054C237833B9044B13B10448AFF3D1
:1051400000800123237010BD080000200000000033
:105150004456000808B5034B1BB103490348AFF39D
:10516000008008BD000000000C000020445600082C
:105170004FF022310A4A0B4B0B48136003F5112301
:1051800003F6FE735360094B196059600849486083
:105190000020D060D8604FF40053CB60704700BF50
:1051A000000801404424222200002022000C01407B
:1051B000001001400F29034610B5104631D8012ACE
:1051C00017D1012B0AD0022B0FD033B9164A00FA9F
:1051D00001F1D4682143D160002010BD134BDA687F
:1051E00000FA01F11143D960F6E70C29F5D9104B0B
:1051F000F5E7B2B9012B09D0022B0ED08BB90A4AC0
:105200000124D3688C4023EA040304E0074A8B405E
:10521000D46824EA0303D360DFE70C2901D9044AE8
:10522000EEE70120D9E700BF00080140000C014073
:105230000010014001290346084624D1102B10D04C
:10524000182B17D0002B43D103F1804303F504330F
:105250001A6842F001021A601A689007FCD5002013
:1052600070471C4B1A6842F480321A601A68910326
:10527000FCD5F4E7174B1A6842F080721A601A687E
:105280009201FCD5EBE711BB102B0ED0182B15D0DB
:10529000EBB903F1804303F504331A6822F00102ED
:1052A0001A601A689007FCD4D9E70A4B1A6822F4EE
:1052B00080321A601A689103FCD4D0E7054B1A6853
:1052C00022F080721A601A689201FCD4C7E70120AC
:1052D000704700BF00100240064A13681368116847
:1052E000DB0843F01F032833DBB241EAC30313603A
:1052F000704700BF0010024008B501210020FFF7F1
:1053000099FF01211020FFF795FF01211820FFF7D9
:1053100091FF2748436823F00303436043684360D9
:10532000036823F002030360436823F4E0634360EF
:1053300043684360436823F46053436043684360B9
:10534000436823F0F003436043684360436823F4F9
:105350008013436043684360FFF7BEFF836943F4F3
:1053600080438361836943F400638361836943F409
:1053700000738361836943F010038361836943F0A1
:1053800008038361836943F004038361C36943F0C5
:105390000073C361C36943F40003C361C36943F489
:1053A0000063C361C36943F00103C36108BD00BF6B
:1053B000001002404FF0E023014A9A63704700BF9B
:1053C0000003FA0508B5044B1B689847034A536964
:1053D00043F00103536108BD240000200004014094
:1053E00008B5044B5B689847034A536943F00203CE
:1053F000536108BD240000200004014008B5044B9F
:105400009B689847034A536943F00403536108BDFE
:10541000240000200004014008B5044BDB689847D5
:10542000034A536943F00803536108BD2400002078
:105430000004014008B5044B1B699847034A5369AF
:1054400043F01003536108BD240000200004014014
:10545000034BDB689B0602D5024B1B68184770475D
:105460000038014038000020034BDB689B0602D562
:10547000024B5B681847704700440040380000202A
:10548000034BDB689B0602D5024B9B6818477047AD
:105490000048004038000020034BDB689B0702D027
:1054A000024B1B681847704700640040440000200E
:1054B000034B1B699B0702D0024B5B681847704780
:1054C000006400404400002008B5094B1A683AB94E
:1054D0004FF0E023196921F0010119615A619A61C5
:1054E000044B1B6898474FF0E0231B6908BD00BFC1
:1054F0004C000020500000200022054B1A601A6961
:10550000120641BF034A5A6002F188325A6070475E
:10551000002002402301674508B5044B1B689847EB
:105520004FF0804300221A6108BD00BF54000020E4
:1055300008B5034B1B6898470022024B1A6108BD4F
:10554000580000200004004008B5034B1B68984732
:105550000022024B1A6108BD5C00002000080040D8
:10556000704703469A780078012A18BF00225978BC
:10557000FFF720BE08B5FFF7BFFEFFF7F9FDFFF705
:1055800019FFBDE80840FFF7B7BF000008B5FFF7F7
:10559000F1FF0348FFF7E5FF0248FFF7E2FFFEE7F0
:1055A00000000020030000200D488546AFF3008076
:1055B0000C480D490D4A002302E0D458C45004336E
:1055C000C4188C42F9D30A4A0A4C002301E0136044
:1055D0000432A242FBD300F011F8FFF7D7FFFEE739
:1055E0000050002000000020080000206456000841
:1055F0000800002060000020FEE7000070B50026D3
:105600000C4D0D4C641BA410A64209D100F01AF8F1
:1056100000260A4D0A4C641BA410A64205D170BD99
:1056200055F8043B98470136EEE755F8043B984798
:105630000136F2E75C5600085C5600085C5600082C
:1056400060560008F8B500BFF8BC08BC9E4670471D
:0C565000F8B500BFF8BC08BC9E467047CF
:04565C00555100089C
:0456600031510008BC
:08566400000401000701000031
:04000005080055A9F1
:00000001FF
