:100000000C9442000C94BD0A0C94BD0A0C94BD0AD9
:100010000C94BD0A0C94BD0A0C94BD0A0C94BD0A44
:100020000C94BD0A0C94BD0A0C94BD0A0C94BD0A34
:100030000C94BD0A0C94BD0A0C94BD0A0C94BD0A24
:100040000C94BD0A0C94BD0A0C94BD0A0C94BD0A14
:100050000C94BD0A9600CF00080141017A01B3015A
:10006000EC0125025E029702DB0214034D038603B6
:10007000BF03F80331046A04A304DC040060008EAB
:100080000015880011241FBECFE5D8E0DEBFCDBF2C
:10009000ECE7F0E040E017C0B591A59135912591CE
:1000A000059107FD0CC095918591EF01F92FE82F7F
:1000B00005900D92A217B307D9F7FE0104C01D9257
:1000C000A217B307E1F7E338F40731F70E94ED0612
:0800D0000C94AC0AF894FFCF78
:1000D8000F931F93CF939FEF980F923020F46A30BD
:1000E80020F4C0E003C0C1E001C0C1E090E021E11C
:1000F800289FD001299FB00D1124A05ABF4F5096B8
:100108002C91222309F448C2213009F089C4462FD2
:1001180050E04A30510508F083C4FA01E65DFF4F0C
:100128000C94B70A21E1289F8001299F100D112402
:10013800005A1F4F41E0F801618180810E94040844
:1001480041E0F801638182810E94040841E0F801DE
:10015800658184810E94040841E0F80167818681F5
:100168000E94040841E0F801618580850E94040826
:1001780041E0F801638582850E94040840E0F801A7
:10018800658584850E94040841E0F80167858685B5
:100198000E94040845C421E1289F8001299F100D71
:1001A8001124005A1F4F40E0F801618180810E94AC
:1001B800040841E0F801638182810E94040841E05B
:1001C800F801658184810E94040840E0F801678194
:1001D80086810E94040840E0F801618580850E94BC
:1001E800040840E0F801638582850E94040840E025
:1001F800F801658584850E94040841E0F801678557
:1002080086850E9404080CC421E1289F8001299F4B
:10021800100D1124005A1F4F41E0F80161818081BF
:100228000E94040841E0F801638182810E94040869
:1002380040E0F801658184810E94040841E0F801EA
:10024800678186810E94040841E0F8016185808504
:100258000E94040840E0F801638582850E94040832
:1002680041E0F801658584850E94040841E0F801B1
:10027800678586850E940408D3C321E1289F8001F1
:10028800299F100D1124005A1F4F41E0F801618188
:1002980080810E94040841E0F801638182810E9404
:1002A800040841E0F801658184810E94040841E066
:1002B800F801678186810E94040840E0F8016185A1
:1002C80080850E94040840E0F801638582850E94C9
:1002D800040841E0F801658584850E94040841E02E
:1002E800F801678586850E9404089AC321E1289F42
:1002F8008001299F100D1124005A1F4F40E0F8017A
:10030800618180810E94040841E0F8016381828153
:100318000E94040841E0F801658184810E94040874
:1003280040E0F801678186810E94040840E0F801F6
:10033800618580850E94040841E0F8016385828513
:100348000E94040841E0F801658584850E9404083C
:1003580041E0F801678586850E94040861C321E1B0
:10036800289F8001299F100D1124005A1F4F41E03A
:10037800F801618180810E94040840E0F8016381EE
:1003880082810E94040841E0F801658184810E940D
:10039800040841E0F801678186810E94040840E072
:1003A800F801618580850E94040841E0F8016385B1
:1003B80082850E94040841E0F801658584850E94D1
:1003C800040841E0F801678586850E94040828C36F
:1003D80021E1289F8001299F100D1124005A1F4FE9
:1003E80041E0F801618180810E94040840E0F80141
:1003F800638182810E94040841E0F801658184815B
:100408000E94040841E0F801678186810E9404087F
:1004180041E0F801618580850E94040841E0F80107
:10042800638582850E94040841E0F801658584851A
:100438000E94040841E0F801678586850E94040847
:10044800EFC221E1289F8001299F100D1124005A35
:100458001F4F41E0F801618180810E94040841E05A
:10046800F801638182810E94040841E0F8016581F6
:1004780084810E94040840E0F801678186810E9417
:10048800040840E0F801618580850E94040840E086
:10049800F801638582850E94040840E0F8016585BB
:1004A80084850E94040841E0F801678586850E94DA
:1004B8000408B6C221E1289F8001299F100D11244C
:1004C800005A1F4F41E0F801618180810E940408B1
:1004D80041E0F801638182810E94040841E0F8014B
:1004E800658184810E94040841E0F8016781868162
:1004F8000E94040841E0F801618580850E94040893
:1005080041E0F801638582850E94040841E0F80112
:10051800658584850E94040841E0F8016785868521
:100528000E9404087DC221E1289F8001299F100DA7
:100538001124005A1F4F41E0F801618180810E9417
:10054800040841E0F801638182810E94040841E0C7
:10055800F801658184810E94040841E0F8016781FF
:1005680086810E94040840E0F801618580850E9428
:10057800040841E0F801638582850E94040841E08F
:10058800F801658584850E94040841E0F8016785C3
:1005980086850E94040844C2462F50E04A3051051F
:1005A80008F03EC2FA01EC5CFF4F0C94B70A21E157
:1005B800289F8001299F100D1124005A1F4F40E0E9
:1005C800F801618180810E94040840E0F80163819C
:1005D80082810E94040840E0F801658184810E94BC
:1005E800040840E0F801678186810E94040840E021
:1005F800F801618580850E94040840E0F801638560
:1006080082850E94040841E0F801658584850E947E
:10061800040840E0F801678586850E94040800C246
:1006280021E1289F8001299F100D1124005A1F4F96
:1006380041E0F801618180810E94040840E0F801EE
:10064800638182810E94040840E0F8016581848109
:100658000E94040841E0F801678186810E9404082D
:1006680041E0F801618580850E94040841E0F801B5
:10067800638582850E94040841E0F80165858485C8
:100688000E94040840E0F801678586850E940408F6
:10069800C7C121E1289F8001299F100D1124005A0C
:1006A8001F4F40E0F801618180810E94040840E00A
:1006B800F801638182810E94040841E0F8016581A4
:1006C80084810E94040840E0F801678186810E94C5
:1006D800040840E0F801618580850E94040841E033
:1006E800F801638582850E94040840E0F801658569
:1006F80084850E94040840E0F801678586850E9489
:1007080004088EC121E1289F8001299F100D112422
:10071800005A1F4F40E0F801618180810E9404085F
:1007280040E0F801638182810E94040840E0F801FA
:10073800658184810E94040840E0F8016781868110
:100748000E94040841E0F801618580850E94040840
:1007580041E0F801638582850E94040840E0F801C1
:10076800658584850E94040840E0F80167858685D0
:100778000E94040855C121E1289F8001299F100D7E
:100788001124005A1F4F41E0F801618180810E94C5
:10079800040840E0F801638182810E94040840E077
:1007A800F801658184810E94040841E0F8016781AD
:1007B80086810E94040841E0F801618580850E94D5
:1007C800040840E0F801638582850E94040840E03F
:1007D800F801658584850E94040840E0F801678572
:1007E80086850E9404081CC121E1289F8001299F59
:1007F800100D1124005A1F4F40E0F80161818081DB
:100808000E94040841E0F801638182810E94040883
:1008180040E0F801658184810E94040840E0F80105
:10082800678186810E94040841E0F801618580851E
:100838000E94040840E0F801638582850E9404084C
:1008480040E0F801658584850E94040840E0F801CD
:10085800678586850E940408E3C021E1289F8001FE
:10086800299F100D1124005A1F4F40E0F8016181A3
:1008780080810E94040841E0F801638182810E941E
:10088800040840E0F801658184810E94040840E082
:10089800F801678186810E94040840E0F8016185BB
:1008A80080850E94040840E0F801638582850E94E3
:1008B800040840E0F801658584850E94040840E04A
:1008C800F801678586850E940408AAC021E1289F4F
:1008D8008001299F100D1124005A1F4F40E0F80194
:1008E800618180810E94040840E0F801638182816F
:1008F8000E94040840E0F801658184810E94040890
:1009080041E0F801678186810E94040841E0F8010E
:10091800618580850E94040841E0F801638582852D
:100928000E94040841E0F801658584850E94040856
:1009380040E0F801678586850E94040871C021E1BE
:10094800289F8001299F100D1124005A1F4F40E055
:10095800F801618180810E94040840E0F801638108
:1009680082810E94040840E0F801658184810E9428
:10097800040840E0F801678186810E94040840E08D
:10098800F801618580850E94040840E0F8016385CC
:1009980082850E94040840E0F801658584850E94EC
:1009A800040840E0F801678586850E94040838C07D
:1009B80021E1289F8001299F100D1124005A1F4F03
:1009C80040E0F801618180810E94040840E0F8015C
:1009D800638182810E94040840E0F8016581848176
:1009E8000E94040840E0F801678186810E9404089B
:1009F80041E0F801618580850E94040840E0F80123
:100A0800638582850E94040840E0F8016585848535
:100A18000E94040840E0F801678586850E94040862
:0A0A28008C2FCF911F910F910895BC
:100A3200FC012081243008F0BFC13181383008F038
:100A4200BDC14281443008F0BBC1213009F473C0FA
:100A520038F0223009F4DAC0233009F442C1B2C1BD
:100A62004130F9F030F04230A9F1433009F44AC084
:100A7200ABC16AB341E050E0FA0102C0EE0FFF1FC2
:100A82003A95E2F79F01262B2ABB2BB3FC0101808A
:100A920002C0440F551F0A94E2F7422B4BBB80E081
:100AA20008956AB341E050E0FA0102C0EE0FFF1F61
:100AB2003A95E2F79F01262B2ABB2BB3FC0101805A
:100AC20002C0440F551F0A94E2F7409542234BBBE4
:100AD20080E008952AB341E050E0BA0102C0660FF7
:100AE200771F3A95E2F7609526232ABB2BB3FC01C8
:100AF200018002C0440F551F0A94E2F7422B4BBB00
:100B020080E008952AB341E050E0BA0102C0660FC6
:100B1200771F3A95E2F7609526232ABB2BB3FC0197
:100B2200018002C0440F551F0A94E2F74095422308
:100B32004BBB80E008954130F9F030F04230A9F12A
:100B4200433009F44AC042C167B341E050E0FA01C0
:100B520002C0EE0FFF1F3A95E2F79F01262B27BB3B
:100B620028B3FC01018002C0440F551F0A94E2F72A
:100B7200422B48BB80E0089567B341E050E0FA01A0
:100B820002C0EE0FFF1F3A95E2F79F01262B27BB0B
:100B920028B3FC01018002C0440F551F0A94E2F7FA
:100BA2004095422348BB80E0089527B341E050E0DE
:100BB200BA0102C0660F771F3A95E2F760952623C5
:100BC20027BB28B3FC01018002C0440F551F0A94C1
:100BD200E2F7422B48BB80E0089527B341E050E0A2
:100BE200BA0102C0660F771F3A95E2F76095262395
:100BF20027BB28B3FC01018002C0440F551F0A9491
:100C0200E2F74095422348BB80E008954130F9F075
:100C120030F04230A9F1433009F44AC0D9C064B37C
:100C220041E050E0FA0102C0EE0FFF1F3A95E2F7F1
:100C32009F01262B24BB25B3FC01018002C0440F77
:100C4200551F0A94E2F7422B45BB80E0089564B336
:100C520041E050E0FA0102C0EE0FFF1F3A95E2F7C1
:100C62009F01262B24BB25B3FC01018002C0440F47
:100C7200551F0A94E2F74095422345BB80E0089550
:100C820024B341E050E0BA0102C0660F771F3A95E3
:100C9200E2F76095262324BB25B3FC01018002C044
:100CA200440F551F0A94E2F7422B45BB80E008959A
:100CB20024B341E050E0BA0102C0660F771F3A95B3
:100CC200E2F76095262324BB25B3FC01018002C014
:100CD200440F551F0A94E2F74095422345BB80E03A
:100CE20008954130F9F030F04230A9F1433009F46F
:100CF2004AC070C061B341E050E0FA0102C0EE0F99
:100D0200FF1F3A95E2F79F01262B21BB22B3FC017C
:100D1200018002C0440F551F0A94E2F7422B42BBE6
:100D220080E0089561B341E050E0FA0102C0EE0FA5
:100D3200FF1F3A95E2F79F01262B21BB22B3FC014C
:100D4200018002C0440F551F0A94E2F740954223E6
:100D520042BB80E0089521B341E050E0BA0102C0F5
:100D6200660F771F3A95E2F76095262321BB22B3DF
:100D7200FC01018002C0440F551F0A94E2F7422B86
:100D820042BB80E0089521B341E050E0BA0102C0C5
:100D9200660F771F3A95E2F76095262321BB22B3AF
:100DA200FC01018002C0440F551F0A94E2F74095EE
:100DB200422342BB80E0089582E0089583E00895D3
:100DC20084E0089580E0089580E0089580E0089529
:080DD20080E0089580E008951F
:100DDA00CF93DF9300D00F92CDB7DEB781E089833E
:100DEA008A838B830E949F080E949C090E94200983
:100DFA0060E080E00E946C0060E081E00E946C008C
:100E0A00F12C00E010E0BE016F5F7F4F80E00E948E
:100E1A009B0ABE016E5F7F4F81E00E949B0ABE0162
:100E2A006D5F7F4F82E00E949B0A8A81811142C0D6
:100E3A00193060F4093050F41F5F8CE291E00E948F
:100E4A007F0A612F80E00E946C0034C0193089F457
:100E5A00093078F40F5F8CE291E00E947F0A60E02B
:100E6A0080E00E946C00602F81E00E946C0010E01C
:100E7A0021C0193089F4093079F48CE291E00E949A
:100E8A007F0A60E080E00E946C0060E081E00E94DE
:100E9A006C0000E010E00EC01F5F8CE291E00E943F
:100EAA007F0A612F80E00E946C0069E081E00E9465
:100EBA006C0009E08B81811146C0112381F0002367
:100ECA0071F011508CE291E00E947F0A612F80E05C
:100EDA000E946C00602F81E00E946C0034C01111E6
:100EEA0011C0002379F001508CE291E00E947F0A40
:100EFA0069E080E00E946C00602F81E00E946C0033
:100F0A0019E021C0111111C001110FC08CE291E04A
:100F1A000E947F0A69E080E00E946C0069E081E03B
:100F2A000E946C0009E019E00EC011508CE291E0B9
:100F3A000E947F0A612F80E00E946C0060E081E0DD
:100F4A000E946C0000E0898181115DCF53C011239A
:100F5A0081F0002371F0115088EE93E00E947F0A1D
:100F6A00612F80E00E946C00602F81E00E946C007B
:100F7A0042C0111111C0002379F0015088EE93E0AC
:100F8A000E947F0A69E080E00E946C00602F81E085
:100F9A000E946C0019E02FC0112381F001110EC0CC
:100FAA00115088EE93E00E947F0A612F80E00E9430
:100FBA006C00602F81E00E946C001DC0F1100DC012
:100FCA0060E080E00E944A0A88EE93E00E947F0A6D
:100FDA0081E0F826EE24E3940EC061E080E00E94EE
:100FEA004A0A88EE93E00E947F0A81E0F826EE24FE
:0E0FFA00E39401C0E12CEE2009F4A9CF04CF4E
:10100800843008F088C0683008F087C0423008F0A3
:1010180086C0813031F138F0823009F440C0833025
:1010280009F45BC07EC0442319F0413071F07BC0E5
:101038002BB381E090E002C0880F991F6A95E2F710
:10104800809582238BBB80E008952BB381E090E0EC
:1010580002C0880F991F6A95E2F7822B8BBB80E04C
:101068000895442319F0413071F05FC028B381E03E
:1010780090E002C0880F991F6A95E2F78095822355
:1010880088BB80E0089528B381E090E002C0880F13
:10109800991F6A95E2F7822B88BB80E00895442364
:1010A80019F0413071F043C025B381E090E002C0EF
:1010B800880F991F6A95E2F78095822385BB80E0A7
:1010C800089525B381E090E002C0880F991F6A95C2
:1010D800E2F7822B85BB80E00895442319F0413064
:1010E80071F027C022B381E090E002C0880F991FF9
:1010F8006A95E2F78095822382BB80E0089522B347
:1011080081E090E002C0880F991F6A95E2F7822B70
:1011180082BB80E0089582E0089583E0089585E029
:10112800089580E0089580E0089580E0089580E0C3
:06113800089580E0089517
:10113E00FF920F931F93CF93DF9300D00F92CDB7F3
:10114E00DEB7F12C80E069C08F2D90E0FC01EE0F30
:10115E00FF1FE80FF91FDF01A557BF4F2C9141E08C
:10116E0050E04C0F5D1FE40FF51F208311962C915C
:10117E001197218312962C91213099F028F022306C
:10118E00F1F0233051F135C0FC01EE0FFF1FE80FD7
:10119E00F91F21E030E02C0F3D1FE20FF31F1282EA
:1011AE0028C0FC01EE0FFF1FE80FF91F41E050E0D1
:1011BE004C0F5D1FE40FF51F21E022831AC0FC01C6
:1011CE00EE0FFF1FE80FF91F21E030E02C0F3D1F3F
:1011DE00E20FF31F21E022830CC0FC01EE0FFF1F74
:1011EE00E80FF91F41E050E04C0F5D1FE40FF51FB3
:1011FE0012828C01000F111F800F911F01E010E071
:10120E000C0F1D1F080F191FC8010E941905C801D8
:10121E000E941905811181E0F394FF2009F494CF07
:10122E000F900F900F90DF91CF911F910F91FF9024
:02123E00089511
:10124000EF92FF920F931F93CF93DF9300D000D0C4
:1012500000D0CDB7DEB7E12C80E05EC08E2D90E0EF
:10126000EF2DF0E0EE0FFF1F41E1489F9001499FF5
:10127000300D1124E20FF31FE05AFF4F4081DC01D3
:10128000AA0FBB1FA80FB91F61E070E06C0F7D1F94
:10129000A60FB71F4C93418111964C93F901E05A68
:1012A000FF4F2089222319F0213079F01AC0FC0168
:1012B000EE0FFF1FE80FF91F21E030E02C0F3D1F5C
:1012C000E20FF31F21E022830CC0FC01EE0FFF1F91
:1012D000E80FF91F61E070E06C0F7D1FE60FF71F4C
:1012E00012828C01000F111F800F911F01E010E08E
:1012F0000C0F1D1F080F191FC8010E941905C801F6
:101300000E941905811181E0F39401C0F12C77E06E
:101310007F1508F0A3CFE39491E09E15B8F72696C9
:101320000FB6F894DEBF0FBECDBFDF91CF911F91F6
:081330000F91FF90EF9008956A
:10133800FF920F931F93CF93DF93CDB7DEB7299713
:101348000FB6F894DEBF0FBECDBFF12C80E04CC0C5
:101358008F2D90E0FC01EE0FFF1FE80FF91FDF0152
:10136800AE57BF4F2C9141E050E04C0F5D1FE40F8A
:10137800F51F208311962C911197218312962C9199
:10138800222319F0213079F01BC0FC01EE0FFF1F5A
:10139800E80FF91F21E030E02C0F3D1FE20FF31F8B
:1013A80022E022830DC0FC01EE0FFF1FE80FF91F9A
:1013B80041E050E04C0F5D1FE40FF51F23E022834E
:1013C8008C01000F111F800F911F01E010E00C0F1E
:1013D8001D1F080F191FC8010E941905C8010E9486
:1013E8001905811181E0F39452E05F1508F0B0CF40
:1013F80029960FB6F894DEBF0FBECDBFDF91CF910F
:081408001F910F91FF90089560
:101410008430D0F56830D0F5813091F028F08230FA
:10142000D9F0833029F134C089B390E002C095959A
:1014300087956A95E2F78170FA01808380E00895CC
:1014400086B390E002C0959587956A95E2F7817022
:10145000FA01808380E0089583B390E002C09595FF
:1014600087956A95E2F78170FA01808380E008959C
:1014700080B390E002C0959587956A95E2F78170F8
:10148000FA01808380E0089582E0089583E0089562
:0414900080E008955B
:10149400CF93DF9300D00F92CDB7DEB790E0FC017D
:1014A400EE0FFF1F8E0F9F1FFC01E557FF4F628356
:1014B4008081898381818A83613041F028F06230A0
:1014C40041F0633049F009C01B8207C081E08B837F
:1014D40004C081E08B8301C01B82CE0101960E946F
:1014E4001905CE0101960E941905811181E00F9022
:0A14F4000F900F90DF91CF91089543
:1014FE00CF93DF9300D0CDB7DEB79A83898306C032
:10150E002BE033E63A95F1F72A95E1F789819A8136
:10151E009C01215031093A832983892B89F70F9039
:08152E000F90DF91CF910895A9
:10153600AB0190E0FC01EE0FFF1F8E0F9F1FFC0119
:10154600EE57FF4F618180810E94080A811181E078
:021556000895F6
:10155800EC010E94C20A0E94C10ACE010E94C30A7D
:06156800CE010E94BF0A43
:0C156E00EE0FFF1F0590F491E02D099492
:04157A000C940000CD
:04157E000E946A005D
:021582000895CA
:021584000895C8
:021586000895C6
:101588000000000100020003000400050006000737
:10159800000200020102020203020402050206021E
:0215A80007003A
:0915AA000300000301000302002C
:0315B30001000133
:00000001FF
