:020000040800F2
:1000000000000120C5020008CB020008CF02000852
:1000100041030008450300088D03000800000000AC
:10002000000000000000000000000000D5030008F0
:10003000D903000800000000DD030008590D000886
:10004000F1030008F1030008F1030008F1030008C0
:10005000F1030008F1030008F1030008F1030008B0
:10006000F1030008F1030008F1030008F1030008A0
:10007000F1030008F1030008F1030008F103000890
:10008000F1030008F1030008F1030008000000007C
:10009000000000000000000000000000F103000864
:1000A000F1030008F1030008F1030008F103000860
:1000B000F1030008F1030008F1030008F103000850
:1000C000F1030008F1030008F1030008F103000840
:1000D000F1030008B90E0008ED0E00080000000052
:1000E000F1030008F1030008F1030008000000001C
:1000F000000000000000000000000000F103000804
:1001000000000000F1030008F1030008F1030008FB
:1001100000000000000000000000000000000000DF
:10012000F1030008F1030008F1030008F1030008DF
:10013000F1030008000000000000000000000000C3
:10014000000000000000000000000000F1030008B3
:10015000F1030008F1030008F1030008210F000873
:10016000F1030008F1030008000000000000000097
:10017000000000000000000000000000000000007F
:1001800000000000F1030008000000000000000073
:10019000F103000800B583B000F0BAF9384B394AD2
:1001A0001360394A1360394900E02146384B9942BF
:1001B0000BD20A684B6801F10C0488689842F4D9A4
:1001C0001168196004330432F8E72E4B1A68314B7A
:1001D0009A4200D0FEE72C4B1A682F4B9A42F9D175
:1001E000274B2E4A13602E4A13602E4B05E0002049
:1001F000106004329342FAD80B462B4A934204D241
:10020000194651F8082B5B68F4E7244B1B6813B9B7
:10021000234B1B6803B1FEE700F086F9694601A88D
:1002200000F022F9214C224BE41AA4100025AC4224
:1002300014DC204C204BE41AA4100025AC4213DC43
:100240000099019800F04EFF05461C4C1C4BE41A27
:10025000A410002C0EDC284600F0E2F8144B53F8F2
:10026000253098470135E2E7134B53F8253098477E
:100270000135E3E7013C124B53F824309847E8E797
:10028000BABADECA00000020AC000020F403000867
:100290000C0400087856341232547698B0000020CE
:1002A000E40100200C0400081C0400081C040008E1
:1002B0001C0400081C0400081C0400081C0400089E
:1002C0001C04000808B5FFF765FF00BEFEE71EF03E
:1002D000040F0CBFEFF30880EFF309807146414A29
:1002E00010472DE9F04182B004468846124B5E6B00
:1002F0009F6B9D6A1B6B13F0020F03D00E4BDB6AE2
:10030000002B0CDB0D4800F0B7F8CDF800803B4621
:1003100032462946204600F00BF900BEFEE74BF6B8
:10032000AB6100F07FF90028ECD0034B4FF00042A6
:10033000DA6202B0BDE8F08100ED00E010240008B0
:1003400000BEFEE71EF0040F0CBFEFF30880EFF3D2
:1003500009807146244A10472DE9F04182B00446D5
:100360008846084B5E6B9F6B9D6A074800F084F8D7
:10037000CDF800803B4632462946204600F0D8F8AA
:1003800000BEFEE700ED00E0202400081EF0040F90
:100390000CBFEFF30880EFF309807146134A104752
:1003A0002DE9F04182B004468846084B5E6B9F6B96
:1003B0009D6A074800F060F8CDF800803B46324661
:1003C0002946204600F0B4F800BEFEE700ED00E04C
:1003D0002C24000800BEFEE700BEFEE700BEFEE7DC
:1003E00070470000E302000859030008A103000859
:0403F00000BEFEE766
:1003F4008825000800000020B0000020882500089F
:100404000000001000000010B0000020E8010020EF
:080414000000001000000010C0
:10042000FEE7000008B503460C4A12685AB10B4AB1
:100430001068033323F003030344094A934206D8A8
:10044000064A136008BD054A06491160EFE701F04E
:10045000D7FA0C2303604FF0FF30F3E7B40000201D
:1004600000FC0020E801002001230360014B0B6029
:10047000704700BF040000200FB400B583B004AB88
:1004800053F8042B01938021064801F0F7FA002865
:1004900003DD0146034800F037F803B05DF804EBD4
:1004A00004B07047BC0000202DE9F04385B004463D
:1004B0000F4643560BB10E461EE004252846214642
:1004C000ABBE0446384605B0BDE8F08314F9011B05
:1004D00004AA1A4402F8101C0133AB42F6D304AA52
:1004E0001344002203F8102C4FF00408E94640465C
:1004F0004946ABBE8046761B002EE3D03546102E13
:1005000028BF10250023E8E708B5FFF7CDFF08BD99
:1005100008B500F097F8024A024B9A6008BD00BF88
:100520000000000800ED00E008B500F0ABF808BDE1
:10053000F8B504460D4617461E462748FFF79CFFB0
:1005400021682648FFF798FF61682548FFF794FF68
:10055000A1682448FFF790FFE1682348FFF78CFF6C
:1005600021692248FFF788FF61692148FFF784FF6E
:10057000A1692048FFF780FFE1691F48FFF77CFF72
:100580001E48FFF779FF29461D48FFF775FF1D4CF0
:10059000E16A1D48FFF770FF216B1C48FFF76CFFF5
:1005A000E16B1B48FFF768FF15F0800F0AD115F4C7
:1005B000004F0CD11748FFF75FFF06991648FFF769
:1005C0005BFFF8BD39461548FFF756FFEFE73146A8
:1005D0001348FFF751FFEDE7F42200080423000859
:1005E00014230008242300083423000844230008AF
:1005F000542300086423000874230008842300089F
:100600009023000800ED00E0A0230008B0230008BC
:10061000C0230008F0230008F8230008D0230008B6
:10062000E023000883691A888A4201D000207047BD
:100630000268033A012A03D802338361012070471C
:10064000002070470C4B1A6842F001021A6000212A
:1006500099601A6822F0847222F480321A60074A84
:100660005A601A6822F480221A60D960044B4FF055
:1006700000629A60704700BF0038024010300024CA
:1006800000ED00E0224B9B6803F00C03042B14D018
:10069000082B16D01BB11F4B1F4A1A6002E01D4BDE
:1006A0001D4A1A601A4B9B68C3F303131B4AD15CA3
:1006B000184A1368CB4013607047164B184A1A60EB
:1006C000F0E7134B5A685B6803F03F0312F4800FA6
:1006D00013D0134AB2FBF3F20D4B5B68C3F38813DC
:1006E00003FB02F30A4A5268C2F30142013252008C
:1006F000B3FBF2F3074A1360D4E7074AB2FBF3F205
:10070000034B5B68C3F3881303FB02F3EAE700BF04
:10071000003802400C0000200024F4003C240008B3
:1007200040787D0110B40368490003248C4023EA1B
:100730000403036003688A401343036010BC7047DE
:1007400010B4C368490003248C4023EA0403C36047
:10075000C3688A401343C36010BC704710B4436938
:1007600001248C4023EA04038A401A43426110BCEE
:100770007047036923FA01F101F00101117070471C
:1007800030B4072913D9A1F10803DBB2072B1AD81B
:10079000436A8D000F24AC4023EA04034362436A9A
:1007A00002F0070292009140194341620BE0036A94
:1007B0008D000F24AC4023EA04030362036A920015
:1007C00091401943016230BC704710B44369D200B4
:1007D000FF24944023EA04034361436991400B439F
:1007E000436110BC7047000010B50F4B01229A7195
:1007F000002406E0012221460C48FFF793FF013454
:10080000E4B2072CF6D9094C012208212046FFF753
:1008100089FF01220A212046FFF784FF024B0022B4
:100820005A721A7210BD00BFD401002000000240AD
:1008300008B5C2B20A210248FFF790FF08BD00BF09
:100840000000024038B50D4B1B682BB100200B4B4C
:100850001860FFF7EDFF38BD0446094D002208215E
:100860002846FFF77BFF002221462846FFF7ADFF11
:100870000120024B1860FFF7DBFFECE7500100207E
:100880000000024008B5214B1B78052B09D8DFE892
:1008900003F00309141F2A35FFF7A6FF1B4B0122A3
:1008A0001A7008BD3820FFF7CDFF194B1B68002BCD
:1008B000F7D1164B02221A70F3E70E20FFF7C2FFA2
:1008C000134B1B68002BECD1104B03221A70E8E786
:1008D0000120FFF7B7FF0E4B1B68002BE1D10B4B3C
:1008E00004221A70DDE70620FFF7ACFF084B1B68F7
:1008F000002BD6D1054B05221A70D2E7054B0022FA
:100900009A71054B02221A70CBE700BF54010020F8
:1009100050010020D40100205501002008B501201D
:10092000FFF790FF034B1B681BB9034B00229A7122
:10093000DA7108BD50010020D401002008B5094B30
:10094000187A8001C0B25B7A184460F07F00C0B2B0
:10095000FFF778FF044B1B681BB9024B00229A710A
:10096000DA7108BDD40100205001002038B50D4BCC
:100970001B682BB100200B4B1860FFF759FF38BDE7
:100980000446094D012208212846FFF7E7FE002210
:1009900021462846FFF719FF0120024B1860FFF798
:1009A00047FFECE7500100200000024008B5144B5F
:1009B0001B7813B1012B07D008BD114B01221A700F
:1009C000104B00225A70F7E70E4B5B7899B20E4A33
:1009D0009288914206D10C4A00239371D371084A40
:1009E0001370E9E7084A1268D05CFFF7BFFF074BB6
:1009F0001B68002BE0D1034A537801335370DBE7C7
:100A0000570100204C010020D4010020500100209B
:100A100008B5144B1B7813B1012B07D008BD114B3F
:100A200001221A70104B00225A70F7E70E4B5B78C8
:100A300099B20E4A9288914206D10C4A00239371D2
:100A4000D371084A1370E9E7084A1268D05CFFF7CF
:100A50008DFF074B1B68002BE0D1034A537801330D
:100A60005370DBE7560100204C010020D401002028
:100A70005001002008B5114B1B78012B02D0022B2E
:100A800003D008BDFFF7FEFEFBE70D4B9B79012B62
:100A9000F7D10B4BDB79013B032BF2D8DFE803F0F6
:100AA0000205080BFFF782FFEBE7FFF737FFE8E7E8
:100AB000FFF744FFE5E7FFF7ABFFE2E75501002052
:100AC000D4010020014B01221A707047550100200B
:100AD000074B1B78022B00D07047064B9B79002BED
:100AE000FAD1044B01229A710222DA71F4E700BFB5
:100AF00055010020D4010020074B1B78022B00D0A9
:100B00007047064B9B79002BFAD1044B01229A7156
:100B1000DA7118609980F3E755010020D4010020B4
:100B2000084B1B78022B00D07047074B9B79002B9A
:100B3000FAD1054B01229A710322DA7159721872A7
:100B4000F2E700BF55010020D40100201B4B1B78A9
:100B5000022B00D070471A4B9B79002BFAD130B48E
:100B6000174B01229A710422DA7168B103460024FE
:100B700005E0144AA2FB0323DB080134E4B2002B96
:100B8000F7D1621ED2B210E00124FAE70D4BA3FBAD
:100B90000013DB081D4603EB83035900431A30336F
:100BA00009498B542846013AD2B2FF2AEED1044BB0
:100BB0009C80054A1A6030BC704700BF5501002078
:100BC000D4010020CDCCCCCC3C01002010B4440991
:100BD000064951F8243000F01F00012202FA00F00B
:100BE000184341F8240010BC704700BF00E100E04A
:100BF000084B1A6808490B6843F001030B60064B69
:100C00001B6813F0020FFAD022F00303014A1360AD
:100C1000704700BF0838024000380240032822D83D
:100C2000DFE800F0020A121A0F480368012202FAF4
:100C300001F11943016070470C480368012202FA70
:100C400001F119430160704709480368012202FA63
:100C500001F119430160704706480368012202FA56
:100C600001F11943016070473038024034380240C6
:100C70004038024044380240F8B5002410E0164DD8
:100C800005EBC4060022317955F83400FFF74AFD20
:100C90000122317955F83400FFF752FD0134E4B2F6
:100CA000052C17D80C4B03EBC4035B79012BE6D062
:100CB000022BF3D1084E06EBC4070022397956F80F
:100CC0003400FFF72FFD0222397956F83400FFF780
:100CD00037FDE3E7F8BD00BF1000002030B583B05A
:100CE000002408E015490A5D01320A5519E0144A4A
:100CF00053550134E4B2052C1DD82546114B03EBA6
:100D0000C4010DF10702097953F83400FFF731FDF2
:100D10000B4B1A5D9DF807309A42E3D0074A002139
:100D20001155064A525D042AE1D1074A5355034A38
:100D300000215155DBE703B030BD00BF5801002052
:100D4000600100201000002068010020014B185CA9
:100D5000704700BF6801002008B5024B1B68984728
:100D600008BD00BF70010020064B1A6842F0020265
:100D70001A601A6822F004021A601A6822F001024E
:100D80001A60704710E000E0054B18600433002241
:100D90001A60044A136843F001031360704700BFF0
:100DA00014E000E010E000E0014B1860704700BF65
:100DB00070010020024A136801331360704700BFBE
:100DC0007401002038B5002408E00F4B03EBC40386
:100DD0000E4A11785A68521A5A600134042C11D8FC
:100DE000094B03EBC4035B68002BEED1064D55F8AD
:100DF00034301B69984755F834309B6805EBC405BF
:100E00006B60E2E738BD00BF7801002040000020A1
:100E100020B1C268064951F8321001B17047044947
:100E200041F83200436801EBC2014B60F6E700BFB6
:100E30007801002008B5FFF797FF0248FFF7B4FFDD
:100E400008BD00BFB50D000808B54FF47A70FFF774
:100E50009BFF054B1B68002BFBD0013B024A136034
:100E6000FFF7B0FFF5E700BF74010020014B1860E9
:100E7000704700BFB00100200B4B40F283629A60C4
:100E8000DA6842F00802DA60DA6842F00402DA60F6
:100E9000DA6842F02002DA6000221A60DA6842F46E
:100EA0000052DA60704700BF001401404160704793
:100EB0004068C0B27047000008B5094B1B6813F0CA
:100EC000400F03D0074B1B6803B19847044B1B68C6
:100ED00013F0200F03D0044B1B6803B1984708BDE3
:100EE00000100140A4010020A001002008B5094B1A
:100EF0001B6813F0400F03D0074B1B6803B19847E2
:100F0000044B1B6813F0200F03D0044B1B6803B184
:100F1000984708BD00440040AC010020A801002013
:100F200008B5094B1B6813F0400F03D0074B1B6833
:100F300003B19847044B1B6813F0200F03D0044BF8
:100F40001B6803B1984708BD00140140B40100209C
:100F5000B00100201F4B1B78012B0BD01E4A1378C9
:100F60000133DBB213703C2B13D01C4B1B783C2B92
:100F700017D070471A4A13780133DBB213703C2B39
:100F8000ECD1184A137801331370154B00221A70F4
:100F9000E4E7124A1378013313700F4B00221A70E2
:100FA000E3E7114B1B780C2B10D00133DBB20E4A58
:100FB00013700C2B03D0094B00221A70D9E70B4A8F
:100FC0001378B3FA83F35B091370F4E7064B01223D
:100FD0001A70F0E7BD010020B9010020B80100201F
:100FE000BB010020BA01002041000020BC0100200C
:100FF00008B50020FFF7AAFE012820D00120FFF746
:10100000A5FE30B30220FFF7A1FE78B30320FFF75F
:101010009DFE012837D00420FFF798FE01283CD020
:101020000520FFF793FE01281FD10022012120484F
:10103000FFF794FB35211F48FFF738FF15E0012229
:1010400011461B48FFF78AFB30211A48FFF72EFF95
:101050000BE00022012100F1804000F50130FFF794
:101060007DFB31211348FFF721FF08BD002201213C
:1010700000F1804000F50130FFF770FB32210D4890
:10108000FFF714FFF1E7002201210948FFF766FB93
:1010900033210848FFF70AFFE7E70022012104484F
:1010A000FFF75CFB34210348FFF700FFDDE700BFDB
:1010B000000402400014014008B50748FFF7F8FE9D
:1010C000064B1870302800D008BD01221146044894
:1010D000FFF744FBF8E700BF00140140E0010020E7
:1010E0000004024000B59BB06422294901A800F029
:1010F0008DFCFFF77DFD01210020FFF78FFD002112
:101100000846FFF78BFD234C012211462046FFF7CE
:1011100009FB012211462046FFF720FBFFF7ACFD3B
:1011200005210320FFF77AFDA4F5806402220B213C
:101130002046FFF7F7FA02220C212046FFF7F2FAC9
:101140000B2208212046FFF71BFB0C22082120461A
:10115000FFF716FB1048FFF789FE4720FFF736FD23
:10116000FFF7B0FCFFF788FEFFF764FE01A8FFF76A
:101170004FFE06A8FFF74CFE0BA8FFF749FE10A88C
:10118000FFF746FE15A8FFF743FEFFF75DFEFEE7FB
:101190004C24000800040240B9100008424B1B78A0
:1011A000312B17D0322B21D0332B2BD0342B35D0F1
:1011B000352B3FD010B504463C4B1B78012B45D056
:1011C0002378013B062B4BD8DFE803F0464E5358FB
:1011D0005D626700364B02221A70364B01221A708C
:1011E000314B4E221A70002303707047304B03229C
:1011F0001A70314B01221A702B4B4E221A700023A9
:10120000037070472A4B04221A702C4B01221A706B
:10121000254B4E221A70002303707047244B052281
:101220001A70274B01221A701F4B4E221A7000238E
:10123000037070471E4B06221A70224B01221A704F
:10124000194B4E221A70002303707047FFF740FCC1
:10125000164B00221A70B3E700210846FFF760FC26
:1012600023780133237010BD06211748FFF744FC93
:10127000F6E706211548FFF73FFCF1E70421144883
:10128000FFF73AFCECE700210120FFF749FCE7E714
:1012900006211048FFF730FCE2E706210E48FFF771
:1012A0002BFC00232370DBE7E0010020C2010020BB
:1012B00043000020BE010020C0010020BF0100202B
:1012C000C1010020C3010020F0240008F824000818
:1012D0000025000808250008102500083D4B1B7854
:1012E000302B11D010B504463B4B1B78012B16D088
:1012F0002378013B0B2B1CD8DFE803F0171F2429B0
:1013000031363B43484D555A0123344A1370344A11
:101310001370304B4E221A70002303707047FFF792
:10132000D7FB2D4B00221A70E2E700210846FFF799
:10133000F7FB23780133237010BD05212948FFF7FF
:10134000DBFBF6E705210120FFF7EAFBF1E7264B7F
:101350001B78092BEDD80020FFF7F8FBE9E7224BBB
:101360001878FFF7F3FBE4E701212048FFF7C4FBFF
:10137000DFE71F4B1B78092BDBD80020FFF7E6FBCC
:10138000D7E71B4B1878FFF7E1FBD2E7012117489D
:10139000FFF7B2FBCDE7174B1B78092BC9D800200C
:1013A000FFF7D4FBC5E7134B1878FFF7CFFBC0E777
:1013B000114B1B7823B1012B07D000232370B8E712
:1013C00003210E48FFF798FBF7E703210C48FFF7CE
:1013D00093FBF2E7E0010020BE0100204300002063
:1013E000C2010020B024000841000020B8240008F9
:1013F000B8010020B9010020BC010020BC24000875
:10140000C02400083A4B1B78302B15D0312B1ED04E
:10141000322B23D010B50446332B26D0354B1B7806
:10142000012B30D02378013B072B36D8DFE803F0BF
:101430003139353E464B505801232F4A13702F4AFD
:1014400013702B4B4E221A700023037070472C4BE5
:1014500001221A70264B4E221A707047284B002228
:101460001A70234B4E221A707047FFF731FB00238E
:10147000244A1370244A1370214A13701C4A4E21C7
:10148000117023700CE0FFF723FB1A4B00221A7037
:10149000C8E700210846FFF743FB23780133237098
:1014A00010BD0B211948FFF727FBF6E7164B1B78F9
:1014B000092BF2D80020FFF749FBEEE7124B187812
:1014C000FFF744FBE9E701211148FFF715FBE4E7CB
:1014D0000C4B1B78092BE0D80020FFF737FBDCE72B
:1014E000084B1878FFF732FB00232370D5E700BFC5
:1014F000E0010020C301002043000020C2010020C1
:10150000BD010020BB010020BA010020C424000856
:10151000B82400085D4B1B78302B19D0312B22D01A
:10152000322B39D0332B4CD0342B5BD010B5044642
:10153000574B1B78012B63D02378013B0A2B69D8CA
:10154000DFE803F0646C6871797E838B90959D0071
:101550000123504A1370504A13704C4B4E221A709C
:101560000023037070474D4B1B780C2B10D00133B8
:10157000DBB24A4A13700C2B03D0444B4E221A7034
:101580007047474A1378B3FA83F35B091370F4E7A3
:10159000424B01221A70F0E7404B1B78012B06D01A
:1015A000013B3E4A1370394B4E221A7070473B4B39
:1015B0000C221A703A4A1378B3FA83F35B0913705A
:1015C000F1E7384B1B783A2B06D80133354A1370B4
:1015D0002E4B4E221A7070473B2BF9D1314B002213
:1015E0001A70F5E72F4B1B7833B1013B2D4A13706E
:1015F000264B4E221A7070472A4B3B221A70F7E78F
:10160000FFF766FA224B00221A7095E70021084680
:10161000FFF786FA23780133237010BD0821224892
:10162000FFF76AFAF6E71D4B1B78092BF2D800206A
:10163000FFF78CFAEEE7194B1878FFF787FAE9E71E
:1016400001211A48FFF758FAE4E7164B1B78092BDB
:10165000E0D80020FFF77AFADCE7124B1878FFF7A2
:1016600075FAD7E701211148FFF746FAD2E7104B88
:101670001B78092BCED80020FFF768FACAE70C4B7D
:101680001878FFF763FA00232370C3E7E001002016
:10169000C001002043000020C201002041000020C2
:1016A000BC010020B8010020DC240008B824000898
:1016B000B90100202E4B1B78302B10D010B50446FA
:1016C0002C4B1B78012B15D02378013B082B1BD802
:1016D000DFE803F0161E232B30353D42470001237F
:1016E000254A1370254A1370214B4E221A7000238D
:1016F00003707047FFF7ECF91E4B00221A70E3E706
:1017000000210846FFF70CFA23780133237010BD3F
:1017100006211B48FFF7F0F9F6E71A4B1B78092B57
:10172000F2D80020FFF712FAEEE7164B1878FFF711
:101730000DFAE9E701211448FFF7DEF9E4E7134B5E
:101740001B78092BE0D80020FFF700FADCE70F4BED
:101750001878FFF7FBF9D7E701210B48FFF7CCF921
:10176000D2E70B4B1888FFF7F1F900232370CBE782
:10177000E0010020BF01002043000020C201002042
:10178000D024000844000020D82400084200002093
:10179000460000207D4B1B78302B1ED0312B27D0EC
:1017A000322B34D0332B41D0342B78D010B50446B3
:1017B000774B1B78012B00F0AB802378013B082B83
:1017C00000F2B080DFE813F0AA00B200B700BF005B
:1017D000C400C900D100D600DB0001236D4A13709C
:1017E0006D4A1370694B4E221A70002303707047C4
:1017F0006A4B1B780C2B06D00133684A1370634B7D
:101800004E221A707047654B01221A70F7E7634B3E
:101810001B78012B06D0013B604A13705B4B4E22B4
:101820001A7070475D4B0C221A70F7E75B4B1B7800
:10183000022B15D0012B1FD0032B1DD0052B1BD045
:10184000072B19D0082B17D00A2B15D00C2B13D02F
:10185000534B1B781E2B1ED00133514A137012E0DC
:101860004F4B1B781D2B03D001334D4A13700AE0F8
:101870004B4B01221A7006E0494B1B781F2B06D0F8
:101880000133474A1370414B4E221A707047444B44
:1018900001221A70F7E7424B01221A70F3E73F4B1F
:1018A0001B78022B15D0012B1FD0032B1DD0052B2D
:1018B0001BD0072B19D0082B17D00A2B15D00C2BB7
:1018C00013D0374B1B78012B1ED0013B344A1370C9
:1018D00012E0334B1B78012B03D0013B304A1370CD
:1018E0000AE02F4B1D221A7006E02D4B1B78012BAE
:1018F00006D0013B2A4A1370244B4E221A707047BF
:10190000274B1F221A70F7E7254B1E221A70F3E7A8
:10191000FFF7DEF81E4B00221A704EE70021084642
:10192000FFF7FEF823780133237010BD06211D4810
:10193000FFF7E2F8F6E71A4B1B78092BF2D80020E4
:10194000FFF704F9EEE7164B1878FFF7FFF8E9E721
:1019500001211548FFF7D0F8E4E7104B1B78092B5D
:10196000E0D80020FFF7F2F8DCE70C4B1878FFF71F
:10197000EDF8D7E701210C48FFF7BEF8D2E70B4B93
:101980001888FFF7E3F800232370CBE7E00100207D
:10199000C101002043000020C201002042000020BD
:1019A00044000020E8240008D82400084600002055
:1019B00008B5114B1B78013B052B07D8DFE803F076
:1019C00003070B0F13170D48FFF7E8FB08BD0B4883
:1019D000FFF784FCFAE70948FFF79CFDF6E70748A4
:1019E000FFF768FEF2E70548FFF7D4FEEEE703488D
:1019F000FFF708FDEAE700BF43000020C401002014
:101A0000014B1868704700BF4800002010B5431E06
:101A10000A44914200D110BD11F8014B03F8014F67
:101A2000F7E730B5141E05469BB0184605DA8B2340
:101A30002B604FF0FF301BB030BD4FF40273ADF898
:101A40000C3014BF04F1FF332346029305934FF685
:101A5000FF7300910491ADF80E3002461E9B69465B
:101A6000284600F073F8431CBCBF8B232B60002C6E
:101A7000E1D0009B00221A70DDE7000007B500935B
:101A800013460A46014603480068FFF7CAFF03B041
:101A90005DF804FB480000202DE9F0478E689E4267
:101AA00082460C469046994637D88A8912F4906F40
:101AB00031D0256809696F1A6569022305EB450570
:101AC00095FBF3F509F101033B449D4238BF1D46E8
:101AD000530530D5294600F073FB064650B90C2358
:101AE000CAF80030A38943F04003A3814FF0FF30D0
:101AF000BDE8F0873A462169FFF788FFA38923F400
:101B0000906343F08003A381266165613E44ED1B31
:101B10002660A5604E464E4500D94E4632464146A7
:101B2000206800F0E5FAA3689B1BA36023681E44AD
:101B300026600020DCE72A4600F09CFB06460028D1
:101B4000E2D12169504600F0EDFAC8E72DE9F04FE7
:101B50009DB0804603938B891D060C4616460FD513
:101B60000B696BB9402100F02BFB2060206128B984
:101B70000C23C8F800304FF0FF30C7E0402363610A
:101B80000023099320238DF8293030238DF82A3043
:101B90004FF0010B37463D4615F8013B0BB1252BA5
:101BA0003ED1B7EB060A0BD053463246214640469B
:101BB000FFF772FF013000F0A480099B53440993A2
:101BC0003B78002B00F09D8000234FF0FF32CDE9E1
:101BD0000523049307938DF853301A932F4605225B
:101BE00017F8011B4F4800F033FA049BD0B9D9060F
:101BF00044BF20228DF853201A0744BF2B228DF8B2
:101C000053202A782A2A15D0079A2F4600200A2521
:101C1000394611F8013B303B092B4DD9B8B10FE0E3
:101C20002F46B8E73F4A801A0BFA00F01843049099
:101C30003D46D3E7039A111D12680391002A01DB88
:101C4000079204E0524243F00203079204933B7868
:101C50002E2B0CD17B782A2B33D1039B1A1D1B68AA
:101C60000392002BB8BF4FF0FF33023705932E4D80
:101C700039780322284600F0EBF938B14023401BA5
:101C800003FA00F0049B0343013704933978274893
:101C90008DF8281006227E1C00F0DAF9002838D0D2
:101CA000234B13BB039B073323F007030833039332
:101CB000099B4B4409936DE705FB023201200F4657
:101CC000A6E700230137059319460A25384610F880
:101CD000012B303A092A03D9002BC8D00591C6E759
:101CE00005FB012101230746F0E703AB00932246E1
:101CF000104B04A94046AFF30080B0F1FF3F81468E
:101D0000D6D1A3895B063FF536AF09981DB0BDE873
:101D1000F08F03AB00932246064B04A9404600F027
:101D200081F8EAE7542500085A2500085E250008D6
:101D300000000000991A00082DE9F04791461F465F
:101D40008A680B69DDF820809342B8BF1346C9F852
:101D5000003091F8432006460C4612B10133C9F811
:101D600000302368990642BFD9F800300233C9F821
:101D70000030256815F0060507D104F1190AE3685B
:101D8000D9F800209B1AAB4228DC94F84330226833
:101D9000003318BF012392062DD404F143023946C3
:101DA0003046C047013020D02368E568D9F80020CC
:101DB00003F00603042B08BFAD1AA36822690CBF09
:101DC00025EAE57500259342C4BF9B1AED184FF034
:101DD00000091A344D451AD1002008E0012352466B
:101DE00039463046C047013003D14FF0FF30BDE8DF
:101DF000F0870135C3E7E1185A1C302081F8430011
:101E0000224494F8451082F843100233C5E70123B9
:101E1000224639463046C0470130E6D009F1010973
:101E2000D8E700002DE9F04301F1430C0C46097E90
:101E300085B06E291746064698460C9A00F0B38086
:101E400022D8632936D00AD8002900F0B980582951
:101E500000F0838004F1420584F8421032E06429E6
:101E600001D06929F6D120681368050603F1040141
:101E70002AD51B681160002B03DA2D225B4284F8FF
:101E800043206F480A2239E0732900F09D8008D86A
:101E90006F2920D07029DDD1236843F0200323600F
:101EA00003E0752917D07829D4D1782384F84530F8
:101EB000644855E01368191D1B68116004F1420560
:101EC00084F8423001238CE01B68116010F0400F51
:101ED00018BF1BB2CFE713682568181D10602806CD
:101EE00001D51B6802E06806FBD51B8854486F29A2
:101EF00014BF0A220822002184F843106568A560F7
:101F0000002DC0F29580216821F004012160002B92
:101F10003DD1002D40F08E806546082A0BD1236804
:101F2000DB0708D5236962689A42DEBF302305F8D3
:101F3000013C05F1FF35ACEB05032361CDF80080D2
:101F40003B4603AA21463046FFF7F6FE01304DD14D
:101F50004FF0FF3005B0BDE8F083394884F84510F4
:101F6000136821681D1D1B6815600A060BD5CA077A
:101F700044BF41F0200121601BB9226822F02002F9
:101F800022601022B7E74D0648BF9BB2EFE76546D7
:101F9000B3FBF2F102FB1133C35C05F8013D0B46C4
:101FA0000029F5D1B9E7136825686169181D10602B
:101FB00028061B6801D5196002E06A06FBD5198066
:101FC000002323616546B9E71368191D11601D6878
:101FD00062680021284600F03BF808B1401B6060B1
:101FE00063682361002384F84330A7E723692A4606
:101FF00039463046C0470130AAD023689B0713D426
:10200000E068039B9842B8BF1846A3E701234A46FD
:1020100039463046C04701309AD00135E368039A0B
:102020009B1AAB42F2DCEBE7002504F11909F5E756
:10203000002BACD1037884F8423004F142056CE700
:10204000652500087625000800000000000000005B
:1020500001F0FF01102A2BDB10F0070F08D010F859
:10206000013B013A8B422DD010F0070F42B3F6D15D
:10207000F0B441EA012141EA014122F007047FF076
:1020800000070023F0E80256083C85EA010586EACD
:10209000010685FA47F5A3FA87F586FA47F6A5FA09
:1020A00087F68EB9EED1F0BC01F0FF0102F0070215
:1020B00032B110F8013B013A83EA010313B1F8D1C0
:1020C0000020704701387047002D06BF35460338A1
:1020D000073815F0010F07D1013015F4807F02BFDA
:1020E000013015F4C03F0130F0BC0138704700BF2B
:1020F000884210B501EB020307D8421E99420AD06C
:1021000011F8014B02F8014FF8E78342F5D9811825
:10211000D21AD34200D110BD13F8014D01F8014D80
:10212000F7E7000038B50546002945D051F8043CD2
:102130000C1F002BB8BFE41800F0D2F81F4A136838
:10214000104633B9636014602846BDE8384000F09B
:10215000C8B8A3420CD921686218934204BF1A6818
:102160005B68636004BF521822600460ECE71346AA
:102170005A680AB1A242FAD919685818A0420BD17C
:1021800020680144581882421960DDD110685268F5
:102190005A6001441960D7E702D90C232B60D3E7BA
:1021A000206821188A4204BF11685268626004BF27
:1021B000091821605C60C7E738BD00BFC801002076
:1021C00070B5CD1C25F0030508350C2D38BF0C2546
:1021D000002D064601DBA94203D90C233360002001
:1021E00070BD00F07DF8214A1468214691B9204C59
:1021F00023681BB9304600F063F82060294630465A
:1022000000F05EF8431C24D10C233360304600F00C
:1022100068F8E4E70B685B1B18D40B2B0FD90B6035
:10222000CD50CC18304600F05CF804F10B00231DB3
:1022300020F00700C31AD3D05A42E250D0E78C42B4
:102240004B6816BF636013600C46EBE70C464968A9
:10225000CCE7C41C24F00304A04205D0211A304668
:1022600000F02EF80130CFD02560DBE7C801002058
:10227000CC010020F8B5074614460E4621B9114698
:10228000BDE8F840FFF79CBF22B9FFF74BFF25469A
:102290002846F8BD00F026F8A0420FD22146384665
:1022A000FFF78EFF05460028F2D031462246FFF7A1
:1022B000ADFB31463846FFF735FFE9E73546E7E73E
:1022C00038B5064C0023054608462360FEF7AAF8F9
:1022D000431C02D1236803B12B6038BDD00100201C
:1022E0007047704751F8043C181F002BBCBF0B58B7
:1022F000C0187047537461636B206672616D653AF4
:102300000A000000205230203D2020253038580A95
:1023100000000000205231203D2020253038580A8E
:1023200000000000205232203D2020253038580A7D
:1023300000000000205233203D2020253038580A6C
:102340000000000020523132203D20253038580A4C
:1023500000000000204C52203D2020253038580A33
:1023600000000000205043203D2020253038580A2E
:102370000000000020505352203D20253038580ADC
:10238000000000004653522F4641523A0A00000016
:102390002043465352203D2020253038580A000063
:1023A0002048465352203D2020253038580A00004E
:1023B0002044465352203D2020253038580A000042
:1023C0002041465352203D2020253038580A000035
:1023D000204D4D464152203D20253038580A0000FE
:1023E0002042464152203D2020253038580A000026
:1023F0004D6973630A000000204C522F4558435F1B
:1024000052455455524E3D20253038580A000000A0
:102410005B486172644661756C745D0A000000007F
:102420005B4275734661756C745D0A005B55736140
:1024300067654661756C745D0A000000000000006D
:10244000000000000102030406070809182500081F
:10245000000000000500000000000000DD0C000886
:1024600024250008000000002C01000002000000EC
:10247000F10F0008302500080000000002000000F5
:1024800001000000750A00083C250008000000005B
:102490001E00000003000000B119000848250008D4
:1024A000D0070000D007000004000000550F00080E
:1024B000436C6F636B0000003A00000020414D0048
:1024C00020504D0053746F70576174636820200072
:1024D00064617465202000002F0000004564697469
:1024E00020202020000000004564697420200000A6
:1024F000312D445420200000322D4554202000006E
:10250000332D444400000000342D444520200000B9
:10251000352D53572020000072756E6E61626C6518
:102520003100000072756E6E61626C6532000000F1
:1025300072756E6E61626C653300000072756E6E4E
:1025400061626C653400000072756E6E61626C656C
:1025500035000000232D302B2000686C4C00656690
:1025600067454647003031323334353637383941E4
:1025700042434445460030313233343536373839FA
:0725800061626364656600FF
:1025880078563412B8000020000000000024F4003F
:1025980000040240000200000004024003010000A1
:1025A8000004024006010000000402400702000087
:1025B8000004024008020000000402400902000072
:1025C8000101040111FFE8074C0000200000000091
:1025D80000000000000000000000000000000000F3
:1025E80000000000000000000000000000000000E3
:1025F80000000000000000000000000000000000D3
:1026080000000000000000000000000000000000C2
:1026180000000000000000000000000000000000B2
:10262800000000000000000000000000325476980E
:040000050800019559
:00000001FF
