:100000000C9430000C94F1050C941B060C944506DE
:100010000C940B070C9457050C94E4060C9496066C
:100020000C94BD060C94E9040C946F060C94210505
:100030000C94C9070C94C9070C94C9070C94C90700
:100040000C94C9070C94C9070C94C9070C94C907F0
:100050000C94C90700600066000FA000660086804F
:1000600011241FBECFE5D8E0DEBFCDBFE4E5F0E050
:1000700040E017C0B591A59135912591059107FDF7
:100080000CC095918591EF01F92FE82F05900D9205
:10009000A217B307D9F7FE0104C01D92A217B30738
:1000A000E1F7E036F40731F70E947E070C948B07E6
:0400B000F894FFCFF2
:1000B400FC012081243008F0BFC13181383008F0C0
:1000C400BDC14281443008F0BBC1213009F473C082
:1000D40038F0223009F4DAC0233009F442C1B2C145
:1000E4004130F9F030F04230A9F1433009F44AC00C
:1000F400ABC16AB341E050E0FA0102C0EE0FFF1F4A
:100104003A95E2F79F01262B2ABB2BB3FC01018011
:1001140002C0440F551F0A94E2F7422B4BBB80E008
:1001240008956AB341E050E0FA0102C0EE0FFF1FE8
:100134003A95E2F79F01262B2ABB2BB3FC010180E1
:1001440002C0440F551F0A94E2F7409542234BBB6B
:1001540080E008952AB341E050E0BA0102C0660F7E
:10016400771F3A95E2F7609526232ABB2BB3FC014F
:10017400018002C0440F551F0A94E2F7422B4BBB87
:1001840080E008952AB341E050E0BA0102C0660F4E
:10019400771F3A95E2F7609526232ABB2BB3FC011F
:1001A400018002C0440F551F0A94E2F74095422390
:1001B4004BBB80E008954130F9F030F04230A9F1B2
:1001C400433009F44AC042C167B341E050E0FA0148
:1001D40002C0EE0FFF1F3A95E2F79F01262B27BBC3
:1001E40028B3FC01018002C0440F551F0A94E2F7B2
:1001F400422B48BB80E0089567B341E050E0FA0128
:1002040002C0EE0FFF1F3A95E2F79F01262B27BB92
:1002140028B3FC01018002C0440F551F0A94E2F781
:100224004095422348BB80E0089527B341E050E065
:10023400BA0102C0660F771F3A95E2F7609526234C
:1002440027BB28B3FC01018002C0440F551F0A9448
:10025400E2F7422B48BB80E0089527B341E050E029
:10026400BA0102C0660F771F3A95E2F7609526231C
:1002740027BB28B3FC01018002C0440F551F0A9418
:10028400E2F74095422348BB80E008954130F9F0FD
:1002940030F04230A9F1433009F44AC0D9C064B304
:1002A40041E050E0FA0102C0EE0FFF1F3A95E2F779
:1002B4009F01262B24BB25B3FC01018002C0440FFF
:1002C400551F0A94E2F7422B45BB80E0089564B3BE
:1002D40041E050E0FA0102C0EE0FFF1F3A95E2F749
:1002E4009F01262B24BB25B3FC01018002C0440FCF
:1002F400551F0A94E2F74095422345BB80E00895D8
:1003040024B341E050E0BA0102C0660F771F3A956A
:10031400E2F76095262324BB25B3FC01018002C0CB
:10032400440F551F0A94E2F7422B45BB80E0089521
:1003340024B341E050E0BA0102C0660F771F3A953A
:10034400E2F76095262324BB25B3FC01018002C09B
:10035400440F551F0A94E2F74095422345BB80E0C1
:1003640008954130F9F030F04230A9F1433009F4F6
:100374004AC070C061B341E050E0FA0102C0EE0F20
:10038400FF1F3A95E2F79F01262B21BB22B3FC0104
:10039400018002C0440F551F0A94E2F7422B42BB6E
:1003A40080E0089561B341E050E0FA0102C0EE0F2D
:1003B400FF1F3A95E2F79F01262B21BB22B3FC01D4
:1003C400018002C0440F551F0A94E2F7409542236E
:1003D40042BB80E0089521B341E050E0BA0102C07D
:1003E400660F771F3A95E2F76095262321BB22B367
:1003F400FC01018002C0440F551F0A94E2F7422B0E
:1004040042BB80E0089521B341E050E0BA0102C04C
:10041400660F771F3A95E2F76095262321BB22B336
:10042400FC01018002C0440F551F0A94E2F7409575
:10043400422342BB80E0089582E0089583E008955A
:1004440084E0089580E0089580E0089580E00895B0
:0804540080E0089580E00895A6
:10045C00CF92DF92EF92FF920F931F9325B52068F6
:10046C0025BD25B5277B25BD25B525BD25B5287F03
:10047C0025BD8B019C0101501109210931090F3156
:10048C0011052105310510F525B5216025BD10920A
:10049C007F0010927E0000E210E020E030E0680166
:1004AC007901C61AD70AE80AF90AC701B6010E94EF
:1004BC00AC0420E030E040E051E40E94C2070E940E
:1004CC00C20560937D0064BD80E0DCC08B019C01A3
:1004DC0001521109210931090F3D11052105310581
:1004EC00B0F425B5226025BD10927F0010927E00DD
:1004FC0000E011E020E030E068017901C61AD70A6B
:10050C00E80AF90AC0927D00C4BC80E0BBC08B0134
:10051C009C0101501140210931090F3F1640210562
:10052C00310510F525B5246025BD10927F00109281
:10053C007E0000E018E020E030E068017901C61A86
:10054C00D70AE80AF90AD701C601689412F8B695D9
:10055C00A795979587951694D1F7809383008091F2
:10056C007D0084BD80E08EC08B019C010150184041
:10057C00210931090F3F17412105310500F525B53A
:10058C00266025BD10927F0010927E0000E010E2E4
:10059C0020E030E068017901C61AD70AE80AF90AA6
:1005AC00D701C601689414F8B695A79597958795C9
:1005BC001694D1F780937D0084BD80E063C08B01DD
:1005CC009C0101501042210931090F3F1F452105A3
:1005DC00310500F525B5276025BD10927F001092DE
:1005EC007E0000E010E820E030E068017901C61AD6
:1005FC00D70AE80AF90AD701C601689416F8B69525
:10060C00A795979587951694D1F780937D0084BD17
:10061C0080E038C0613020E872078105910588F1CF
:10062C0025B5276025BD0E94AC0420E030E040E0F9
:10063C0058E30E94C2076B017C010E94C2056093C3
:10064C007F0070E080E090E00E94AC049B01AC0164
:10065C00C701B6010E94A0079B01AC0160E070E0ED
:10066C0080E89FE30E94A00720E030E040E853E4DC
:10067C000E94C2070E94C20560937D0064BD80E0A9
:10068C0001C081E099B7906499BF9FB790689FBFF4
:0E069C001F910F91FF90EF90DF90CF90089587
:1006AA00FF920F931F93CF93DF9300D000D000D017
:1006BA00CDB7DEB7F12C80E069C08F2D90E0FC0148
:1006CA00EE0FFF1FE80FF91FDF01A05ABF4F2C9151
:1006DA0041E050E04C0F5D1FE40FF51F2083119697
:1006EA002C911197218312962C91213099F028F0A0
:1006FA002230F1F0233051F135C0FC01EE0FFF1F1B
:10070A00E80FF91F21E030E02C0F3D1FE20FF31F25
:10071A00128228C0FC01EE0FFF1FE80FF91F41E00B
:10072A0050E04C0F5D1FE40FF51F21E022831AC031
:10073A00FC01EE0FFF1FE80FF91F21E030E02C0F3C
:10074A003D1FE20FF31F21E022830CC0FC01EE0FD4
:10075A00FF1FE80FF91F41E050E04C0F5D1FE40F47
:10076A00F51F12828C01000F111F800F911F01E0EB
:10077A0010E00C0F1D1F080F191FC8010E945A0014
:10078A00C8010E945A00811181E0F39451E05F157B
:10079A0008F093CF26960FB6F894DEBF0FBECDBFF2
:0C07AA00DF91CF911F910F91FF900895F7
:1007B6000FC00E94A70738F00E94AE0720F09523CD
:1007C60011F00C94BC070C94C60711240C94B607C0
:1007D6000E94320770F3959FC1F3950F50E0551FA5
:1007E600629FF001729FBB27F00DB11D639FAA2780
:1007F600F00DB11DAA1F649F6627B00DA11D661FCF
:10080600829F2227B00DA11D621F739FB00DA11DEF
:10081600621F839FA00D611D221F749F3327A00DA9
:10082600611D231F849F600D211D822F762F6A2F45
:1008360011249F5750409AF0F1F088234AF0EE0FAA
:10084600FF1FBB1F661F771F881F91505040A9F7D7
:100856009E3F510580F00C94BC070C94B6075F3F91
:10086600E4F3983ED4F3869577956795B795F79513
:10087600E7959F5FC1F7FE2B880F911D969587958B
:0408860097F9089541
:10088A0011C00E94A70738F00E94AE0720F039F481
:10089A009F3F19F426F40C94C6070EF4E095E7FB83
:1008AA000C94BC07E92F0E94320758F3BA17620763
:1008BA0073078407950720F079F4A6F50C94B50719
:1008CA000EF4E0950B2EBA2FA02D0B01B901900161
:1008DA000C01CA01A0011124FF27591B99F0593FA5
:1008EA0050F4503E68F11A16F040A22F232F342FED
:1008FA004427585FF3CF469537952795A795F0403B
:10090A005395C9F77EF41F16BA0B620B730B840B4F
:10091A00BAF09150A1F0FF0FBB1F661F771F881F07
:10092A00C2F70EC0BA0F621F731F841F48F487955F
:10093A0077956795B795F7959E3F08F0B0CF939551
:0E094A00880F08F09927EE0F9795879508956E
:10095800E89409C097FB3EF4909580957095619551
:100968007F4F8F4F9F4F9923A9F0F92F96E9BB2707
:100978009395F695879577956795B795F111F8CF83
:10098800FAF4BB0F11F460FF1BC06F5F7F4F8F4FEE
:100998009F4F16C0882311F096E911C0772321F0E4
:1009A8009EE8872F762F05C0662371F096E8862F7C
:1009B80070E060E02AF09A95660F771F881FDAF7D3
:0A09C800880F9695879597F908951A
:1009D2001F920F920FB60F9211242F933F934F93B2
:1009E2005F936F937F938F939F93AF93BF93EF9395
:1009F200FF93809181009091820089130DC0E09154
:100A02007600F091770009958091800090E09DBD7D
:100A12008CBD1092810003C08F5F80938100FF9193
:100A2200EF91BF91AF919F918F917F916F915F9164
:100A32004F913F912F910F900FBE0F901F901895DD
:100A42001F920F920FB60F9211242F933F934F9341
:100A52005F936F937F938F939F93AF93BF93EF9324
:100A6200FF93809184009091850089130BC0E091DF
:100A72007A00F0917B0009958091830082BF1092E9
:100A8200840003C08F5F80938400FF91EF91BF9138
:100A9200AF919F918F917F916F915F914F913F9114
:0C0AA2002F910F900FBE0F901F90189521
:100AAE001F920F920FB60F9211242F933F934F93D5
:100ABE005F936F937F938F939F93AF93BF93EF93B8
:100ACE00FF9380917E0090917F0089130BC0E0917F
:100ADE006E00F0916F00099580917D0084BD10929B
:100AEE007E0003C08F5F80937E00FF91EF91BF91D8
:100AFE00AF919F918F917F916F915F914F913F91A8
:0C0B0E002F910F900FBE0F901F901895B4
:100B1A00CF93DF9300D00F92CDB7DEB790E0FC0100
:100B2A00EE0FFF1F8E0F9F1FFC01E05AFF4F6283DB
:100B3A008081898381818A83613041F028F0623023
:100B4A0041F0633049F009C01B8207C081E08B8302
:100B5A0004C081E08B8301C01B82CE0101960E94F2
:100B6A005A00CE0101960E945A00811181E00F902D
:0A0B7A000F900F90DF91CF910895C6
:100B84000E943A0788F09F5798F0B92F9927B751D8
:100B9400B0F0E1F0660F771F881F991F1AF0BA951D
:100BA400C9F714C0B13091F00E94B507B1E00895BF
:100BB4000C94B507672F782F8827B85F39F0B93FB1
:100BC400CCF3869577956795B395D9F73EF49095D0
:0E0BD4008095709561957F4F8F4F9F4F0895CC
:100BE2001F920F920FB60F9211242F933F934F93A0
:100BF2005F936F937F938F939F93AF93BF93EF9383
:100C0200FF93E0916A00F0916B0009958AB78064C6
:100C12008ABFFF91EF91BF91AF919F918F917F9189
:100C22006F915F914F913F912F910F900FBE0F9057
:040C32001F90189562
:100C36001F920F920FB60F9211242F933F934F934B
:100C46005F936F937F938F939F93AF93BF93EF932E
:100C5600FF93E0916800F091690009958AB7806872
:100C66008ABFFF91EF91BF91AF919F918F917F9135
:100C76006F915F914F913F912F910F900FBE0F9003
:040C86001F9018950E
:100C8A001F920F920FB60F9211242F933F934F93F7
:100C9A005F936F937F938F939F93AF93BF93EF93DA
:100CAA00FF93E0916600F091670009958AB7806228
:100CBA008ABFFF91EF91BF91AF919F918F917F91E1
:100CCA006F915F914F913F912F910F900FBE0F90AF
:040CDA001F901895BA
:100CDE001F920F920FB60F9211242F933F934F93A3
:100CEE005F936F937F938F939F93AF93BF93EF9386
:100CFE00FF93E0917800F09179000995FF91EF91C3
:100D0E00BF91AF919F918F917F916F915F914F9115
:0E0D1E003F912F910F900FBE0F901F901895D0
:100D2C001F920F920FB60F9211242F933F934F9354
:100D3C005F936F937F938F939F93AF93BF93EF9337
:100D4C00FF93E0917400F09175000995FF91EF917C
:100D5C00BF91AF919F918F917F916F915F914F91C7
:0E0D6C003F912F910F900FBE0F901F90189582
:100D7A001F920F920FB60F9211242F933F934F9306
:100D8A005F936F937F938F939F93AF93BF93EF93E9
:100D9A00FF93E0917200F09173000995FF91EF9132
:100DAA00BF91AF919F918F917F916F915F914F9179
:0E0DBA003F912F910F900FBE0F901F90189534
:100DC8001F920F920FB60F9211242F933F934F93B8
:100DD8005F936F937F938F939F93AF93BF93EF939B
:100DE800FF93E0917000F09171000995FF91EF91E8
:100DF800BF91AF919F918F917F916F915F914F912B
:0E0E08003F912F910F900FBE0F901F901895E5
:100E16001F920F920FB60F9211242F933F934F9369
:100E26005F936F937F938F939F93AF93BF93EF934C
:100E3600FF93E0916C00F0916D000995FF91EF91A1
:100E4600BF91AF919F918F917F916F915F914F91DC
:0E0E56003F912F910F900FBE0F901F90189597
:100E640057FD9058440F551F59F05F3F71F0479557
:100E7400880F97FB991F61F09F3F79F0879508953C
:100E8400121613061406551FF2CF4695F1DF08C05B
:100E9400161617061806991FF1CF86957105610578
:040EA4000894089511
:100EA80080917C0081110AC060E00E948D059091BC
:100EB8007C0081E0892780937C00089561E080E0D0
:100EC8000E948D0590917C0081E0892780937C00A9
:020ED80008957B
:100EDA00092E0394000C11F4882352F0BB0F40F43E
:100EEA00BF2B11F460FF04C06F5F7F4F8F4F9F4F7E
:020EFA00089559
:100EFC0084E597E00E9496070E94550360E472E433
:0A0F0C008FE090E00E942E02FFCF5C
:100F1600EC010E94CE070E94CD07CE010E94CF07AA
:060F2600CE010E94CB0782
:100F2C00009731F090936F0080936E0080E00895ED
:040F3C0081E00895B3
:0E0F40005058BB27AA270E9445040C946D0749
:0E0F4E0000240A9416161706180609060895C0
:0E0F5C0000240A9412161306140605060895C2
:0E0F6A00E894BB2766277727CB0197F90895F7
:0C0F780097F99F6780E870E060E0089542
:080F84000E94DB030C946D07D1
:060F8C009FEF80EC0895C8
:040F92000C940000BB
:040F96000E9458005D
:020F9A000895B8
:020F9C000895B6
:020F9E000895B4
:060FA00000000100010049
:00000001FF
