:100000000C9444000C94B3090C94DD090C94070A79
:100010000C949E0A0C949E0A0C949E0A0C949E0AC0
:100020000C949E0A0C949E0A0C949E0A0C949E0AB0
:100030000C949E0A0C949E0A0C949E0A0C949E0AA0
:100040000C949E0A0C949E0A0C949E0A0C949E0A90
:100050000C949E0A9800D1000A0143017C01B5016D
:10006000EE01270260029902DD0216034F038803A6
:10007000C103FA0333046C04A504DE040060008E9F
:1000800000154A008E00968011241FBECFE5D8E0EF
:10009000DEBFCDBFECE7F0E040E017C0B591A59121
:1000A00035912591059107FD0CC095918591EF0142
:1000B000F92FE82F05900D92A217B307D9F7FE018B
:1000C00004C01D92A217B307E1F7E838F40731F72F
:0C00D0000E944D0A0C94790AF894FFCFAE
:1000DC000F931F93CF939FEF980F923020F46A30B9
:1000EC0020F4C0E003C0C1E001C0C1E090E021E118
:1000FC00289FD001299FB00D1124A05ABF4F5096B4
:10010C002C91222309F448C2213009F089C4462FCE
:10011C0050E04A30510508F083C4FA01E65DFF4F08
:10012C000C94980A21E1289F8001299F100D11241D
:10013C00005A1F4F41E0F801618180810E94EF0657
:10014C0041E0F801638182810E94EF0641E0F801F1
:10015C00658184810E94EF0641E0F8016781868108
:10016C000E94EF0641E0F801618580850E94EF0650
:10017C0041E0F801638582850E94EF0640E0F801BA
:10018C00658584850E94EF0641E0F80167858685C8
:10019C000E94EF0645C421E1289F8001299F100D84
:1001AC001124005A1F4F40E0F801618180810E94A8
:1001BC00EF0641E0F801638182810E94EF0641E085
:1001CC00F801658184810E94EF0640E0F8016781A7
:1001DC0086810E94EF0640E0F801618580850E94CF
:1001EC00EF0640E0F801638582850E94EF0640E04F
:1001FC00F801658584850E94EF0641E0F80167856A
:10020C0086850E94EF060CC421E1289F8001299F5E
:10021C00100D1124005A1F4F41E0F80161818081BB
:10022C000E94EF0641E0F801638182810E94EF0693
:10023C0040E0F801658184810E94EF0641E0F801FD
:10024C00678186810E94EF0641E0F8016185808517
:10025C000E94EF0640E0F801638582850E94EF065C
:10026C0041E0F801658584850E94EF0641E0F801C4
:10027C00678586850E94EF06D3C321E1289F800104
:10028C00299F100D1124005A1F4F41E0F801618184
:10029C0080810E94EF0641E0F801638182810E9417
:1002AC00EF0641E0F801658184810E94EF0641E090
:1002BC00F801678186810E94EF0640E0F8016185B4
:1002CC0080850E94EF0640E0F801638582850E94DC
:1002DC00EF0641E0F801658584850E94EF0641E058
:1002EC00F801678586850E94EF069AC321E1289F55
:1002FC008001299F100D1124005A1F4F40E0F80176
:10030C00618180810E94EF0641E0F8016381828166
:10031C000E94EF0641E0F801658184810E94EF069E
:10032C0040E0F801678186810E94EF0640E0F80109
:10033C00618580850E94EF0641E0F8016385828526
:10034C000E94EF0641E0F801658584850E94EF0666
:10035C0041E0F801678586850E94EF0661C321E1C3
:10036C00289F8001299F100D1124005A1F4F41E036
:10037C00F801618180810E94EF0640E0F801638101
:10038C0082810E94EF0641E0F801658184810E9420
:10039C00EF0641E0F801678186810E94EF0640E09C
:1003AC00F801618580850E94EF0641E0F8016385C4
:1003BC0082850E94EF0641E0F801658584850E94E4
:1003CC00EF0641E0F801678586850E94EF0628C399
:1003DC0021E1289F8001299F100D1124005A1F4FE5
:1003EC0041E0F801618180810E94EF0640E0F80154
:1003FC00638182810E94EF0641E0F801658184816E
:10040C000E94EF0641E0F801678186810E94EF06A9
:10041C0041E0F801618580850E94EF0641E0F8011A
:10042C00638582850E94EF0641E0F801658584852D
:10043C000E94EF0641E0F801678586850E94EF0671
:10044C00EFC221E1289F8001299F100D1124005A31
:10045C001F4F41E0F801618180810E94EF0641E06D
:10046C00F801638182810E94EF0641E0F801658109
:10047C0084810E94EF0640E0F801678186810E942A
:10048C00EF0640E0F801618580850E94EF0640E0B0
:10049C00F801638582850E94EF0640E0F8016585CE
:1004AC0084850E94EF0641E0F801678586850E94ED
:1004BC00EF06B6C221E1289F8001299F100D11245F
:1004CC00005A1F4F41E0F801618180810E94EF06C4
:1004DC0041E0F801638182810E94EF0641E0F8015E
:1004EC00658184810E94EF0641E0F8016781868175
:1004FC000E94EF0641E0F801618580850E94EF06BD
:10050C0041E0F801638582850E94EF0641E0F80125
:10051C00658584850E94EF0641E0F8016785868534
:10052C000E94EF067DC221E1289F8001299F100DBA
:10053C001124005A1F4F41E0F801618180810E9413
:10054C00EF0641E0F801638182810E94EF0641E0F1
:10055C00F801658184810E94EF0641E0F801678112
:10056C0086810E94EF0640E0F801618580850E943B
:10057C00EF0641E0F801638582850E94EF0641E0B9
:10058C00F801658584850E94EF0641E0F8016785D6
:10059C0086850E94EF0644C2462F50E04A30510532
:1005AC0008F03EC2FA01EC5CFF4F0C94980A21E172
:1005BC00289F8001299F100D1124005A1F4F40E0E5
:1005CC00F801618180810E94EF0640E0F8016381AF
:1005DC0082810E94EF0640E0F801658184810E94CF
:1005EC00EF0640E0F801678186810E94EF0640E04B
:1005FC00F801618580850E94EF0640E0F801638573
:10060C0082850E94EF0641E0F801658584850E9491
:10061C00EF0640E0F801678586850E94EF0600C270
:10062C0021E1289F8001299F100D1124005A1F4F92
:10063C0041E0F801618180810E94EF0640E0F80101
:10064C00638182810E94EF0640E0F801658184811C
:10065C000E94EF0641E0F801678186810E94EF0657
:10066C0041E0F801618580850E94EF0641E0F801C8
:10067C00638582850E94EF0641E0F80165858485DB
:10068C000E94EF0640E0F801678586850E94EF0620
:10069C00C7C121E1289F8001299F100D1124005A08
:1006AC001F4F40E0F801618180810E94EF0640E01D
:1006BC00F801638182810E94EF0641E0F8016581B7
:1006CC0084810E94EF0640E0F801678186810E94D8
:1006DC00EF0640E0F801618580850E94EF0641E05D
:1006EC00F801638582850E94EF0640E0F80165857C
:1006FC0084850E94EF0640E0F801678586850E949C
:10070C00EF068EC121E1289F8001299F100D112435
:10071C00005A1F4F40E0F801618180810E94EF0672
:10072C0040E0F801638182810E94EF0640E0F8010D
:10073C00658184810E94EF0640E0F8016781868123
:10074C000E94EF0641E0F801618580850E94EF066A
:10075C0041E0F801638582850E94EF0640E0F801D4
:10076C00658584850E94EF0640E0F80167858685E3
:10077C000E94EF0655C121E1289F8001299F100D91
:10078C001124005A1F4F41E0F801618180810E94C1
:10079C00EF0640E0F801638182810E94EF0640E0A1
:1007AC00F801658184810E94EF0641E0F8016781C0
:1007BC0086810E94EF0641E0F801618580850E94E8
:1007CC00EF0640E0F801638582850E94EF0640E069
:1007DC00F801658584850E94EF0640E0F801678585
:1007EC0086850E94EF061CC121E1289F8001299F6C
:1007FC00100D1124005A1F4F40E0F80161818081D7
:10080C000E94EF0641E0F801638182810E94EF06AD
:10081C0040E0F801658184810E94EF0640E0F80118
:10082C00678186810E94EF0641E0F8016185808531
:10083C000E94EF0640E0F801638582850E94EF0676
:10084C0040E0F801658584850E94EF0640E0F801E0
:10085C00678586850E94EF06E3C021E1289F800111
:10086C00299F100D1124005A1F4F40E0F80161819F
:10087C0080810E94EF0641E0F801638182810E9431
:10088C00EF0640E0F801658184810E94EF0640E0AC
:10089C00F801678186810E94EF0640E0F8016185CE
:1008AC0080850E94EF0640E0F801638582850E94F6
:1008BC00EF0640E0F801658584850E94EF0640E074
:1008CC00F801678586850E94EF06AAC021E1289F62
:1008DC008001299F100D1124005A1F4F40E0F80190
:1008EC00618180810E94EF0640E0F8016381828182
:1008FC000E94EF0640E0F801658184810E94EF06BA
:10090C0041E0F801678186810E94EF0641E0F80121
:10091C00618580850E94EF0641E0F8016385828540
:10092C000E94EF0641E0F801658584850E94EF0680
:10093C0040E0F801678586850E94EF0671C021E1D1
:10094C00289F8001299F100D1124005A1F4F40E051
:10095C00F801618180810E94EF0640E0F80163811B
:10096C0082810E94EF0640E0F801658184810E943B
:10097C00EF0640E0F801678186810E94EF0640E0B7
:10098C00F801618580850E94EF0640E0F8016385DF
:10099C0082850E94EF0640E0F801658584850E94FF
:1009AC00EF0640E0F801678586850E94EF0638C0A7
:1009BC0021E1289F8001299F100D1124005A1F4FFF
:1009CC0040E0F801618180810E94EF0640E0F8016F
:1009DC00638182810E94EF0640E0F8016581848189
:1009EC000E94EF0640E0F801678186810E94EF06C5
:1009FC0041E0F801618580850E94EF0640E0F80136
:100A0C00638582850E94EF0640E0F8016585848548
:100A1C000E94EF0640E0F801678586850E94EF068C
:0A0A2C008C2FCF911F910F910895B8
:100A3600FC012081243008F0BFC13181383008F034
:100A4600BDC14281443008F0BBC1213009F473C0F6
:100A560038F0223009F4DAC0233009F442C1B2C1B9
:100A66004130F9F030F04230A9F1433009F44AC080
:100A7600ABC16AB341E050E0FA0102C0EE0FFF1FBE
:100A86003A95E2F79F01262B2ABB2BB3FC01018086
:100A960002C0440F551F0A94E2F7422B4BBB80E07D
:100AA60008956AB341E050E0FA0102C0EE0FFF1F5D
:100AB6003A95E2F79F01262B2ABB2BB3FC01018056
:100AC60002C0440F551F0A94E2F7409542234BBBE0
:100AD60080E008952AB341E050E0BA0102C0660FF3
:100AE600771F3A95E2F7609526232ABB2BB3FC01C4
:100AF600018002C0440F551F0A94E2F7422B4BBBFC
:100B060080E008952AB341E050E0BA0102C0660FC2
:100B1600771F3A95E2F7609526232ABB2BB3FC0193
:100B2600018002C0440F551F0A94E2F74095422304
:100B36004BBB80E008954130F9F030F04230A9F126
:100B4600433009F44AC042C167B341E050E0FA01BC
:100B560002C0EE0FFF1F3A95E2F79F01262B27BB37
:100B660028B3FC01018002C0440F551F0A94E2F726
:100B7600422B48BB80E0089567B341E050E0FA019C
:100B860002C0EE0FFF1F3A95E2F79F01262B27BB07
:100B960028B3FC01018002C0440F551F0A94E2F7F6
:100BA6004095422348BB80E0089527B341E050E0DA
:100BB600BA0102C0660F771F3A95E2F760952623C1
:100BC60027BB28B3FC01018002C0440F551F0A94BD
:100BD600E2F7422B48BB80E0089527B341E050E09E
:100BE600BA0102C0660F771F3A95E2F76095262391
:100BF60027BB28B3FC01018002C0440F551F0A948D
:100C0600E2F74095422348BB80E008954130F9F071
:100C160030F04230A9F1433009F44AC0D9C064B378
:100C260041E050E0FA0102C0EE0FFF1F3A95E2F7ED
:100C36009F01262B24BB25B3FC01018002C0440F73
:100C4600551F0A94E2F7422B45BB80E0089564B332
:100C560041E050E0FA0102C0EE0FFF1F3A95E2F7BD
:100C66009F01262B24BB25B3FC01018002C0440F43
:100C7600551F0A94E2F74095422345BB80E008954C
:100C860024B341E050E0BA0102C0660F771F3A95DF
:100C9600E2F76095262324BB25B3FC01018002C040
:100CA600440F551F0A94E2F7422B45BB80E0089596
:100CB60024B341E050E0BA0102C0660F771F3A95AF
:100CC600E2F76095262324BB25B3FC01018002C010
:100CD600440F551F0A94E2F74095422345BB80E036
:100CE60008954130F9F030F04230A9F1433009F46B
:100CF6004AC070C061B341E050E0FA0102C0EE0F95
:100D0600FF1F3A95E2F79F01262B21BB22B3FC0178
:100D1600018002C0440F551F0A94E2F7422B42BBE2
:100D260080E0089561B341E050E0FA0102C0EE0FA1
:100D3600FF1F3A95E2F79F01262B21BB22B3FC0148
:100D4600018002C0440F551F0A94E2F740954223E2
:100D560042BB80E0089521B341E050E0BA0102C0F1
:100D6600660F771F3A95E2F76095262321BB22B3DB
:100D7600FC01018002C0440F551F0A94E2F7422B82
:100D860042BB80E0089521B341E050E0BA0102C0C1
:100D9600660F771F3A95E2F76095262321BB22B3AB
:100DA600FC01018002C0440F551F0A94E2F74095EA
:100DB600422342BB80E0089582E0089583E00895CF
:100DC60084E0089580E0089580E0089580E0089525
:080DD60080E0089580E008951B
:100DDE00843008F088C0683008F087C0423008F0D0
:100DEE0086C0813031F138F0823009F440C0833052
:100DFE0009F45BC07EC0442319F0413071F07BC012
:100E0E002BB381E090E002C0880F991F6A95E2F73C
:100E1E00809582238BBB80E008952BB381E090E018
:100E2E0002C0880F991F6A95E2F7822B8BBB80E078
:100E3E000895442319F0413071F05FC028B381E06A
:100E4E0090E002C0880F991F6A95E2F78095822381
:100E5E0088BB80E0089528B381E090E002C0880F3F
:100E6E00991F6A95E2F7822B88BB80E00895442390
:100E7E0019F0413071F043C025B381E090E002C01B
:100E8E00880F991F6A95E2F78095822385BB80E0D3
:100E9E00089525B381E090E002C0880F991F6A95EE
:100EAE00E2F7822B85BB80E00895442319F0413090
:100EBE0071F027C022B381E090E002C0880F991F25
:100ECE006A95E2F78095822382BB80E0089522B373
:100EDE0081E090E002C0880F991F6A95E2F7822B9D
:100EEE0082BB80E0089582E0089583E0089585E056
:100EFE00089580E0089580E0089580E0089580E0F0
:060F0E00089580E0089543
:100F1400FF920F931F93CF93DF9300D00F92CDB71F
:100F2400DEB7F12C80E069C08F2D90E0FC01EE0F5C
:100F3400FF1FE80FF91FDF01A557BF4F2C9141E0B8
:100F440050E04C0F5D1FE40FF51F208311962C9188
:100F54001197218312962C91213099F028F0223098
:100F6400F1F0233051F135C0FC01EE0FFF1FE80F03
:100F7400F91F21E030E02C0F3D1FE20FF31F128216
:100F840028C0FC01EE0FFF1FE80FF91F41E050E0FD
:100F94004C0F5D1FE40FF51F21E022831AC0FC01F2
:100FA400EE0FFF1FE80FF91F21E030E02C0F3D1F6B
:100FB400E20FF31F21E022830CC0FC01EE0FFF1FA0
:100FC400E80FF91F41E050E04C0F5D1FE40FF51FDF
:100FD40012828C01000F111F800F911F01E010E09D
:100FE4000C0F1D1F080F191FC8010E941B05C80103
:100FF4000E941B05811181E0F394FF2009F494CF32
:101004000F900F900F90DF91CF911F910F91FF9050
:0210140008953D
:10101600EF92FF920F931F93CF93DF9300D000D0F0
:1010260000D0CDB7DEB7E12C80E05EC08E2D90E01B
:10103600EF2DF0E0EE0FFF1F41E1489F9001499F21
:10104600300D1124E20FF31FE05AFF4F4081DC01FF
:10105600AA0FBB1FA80FB91F61E070E06C0F7D1FC0
:10106600A60FB71F4C93418111964C93F901E05A94
:10107600FF4F2089222319F0213079F01AC0FC0194
:10108600EE0FFF1FE80FF91F21E030E02C0F3D1F88
:10109600E20FF31F21E022830CC0FC01EE0FFF1FBD
:1010A600E80FF91F61E070E06C0F7D1FE60FF71F78
:1010B60012828C01000F111F800F911F01E010E0BA
:1010C6000C0F1D1F080F191FC8010E941B05C80120
:1010D6000E941B05811181E0F39401C0F12C77E099
:1010E6007F1508F0A3CFE39491E09E15B8F72696F6
:1010F6000FB6F894DEBF0FBECDBFDF91CF911F9123
:081106000F91FF90EF90089596
:10110E00FF920F931F93CF93DF93CDB7DEB729973F
:10111E000FB6F894DEBF0FBECDBFF12C80E04CC0F1
:10112E008F2D90E0FC01EE0FFF1FE80FF91FDF017E
:10113E00AE57BF4F2C9141E050E04C0F5D1FE40FB6
:10114E00F51F208311962C911197218312962C91C5
:10115E00222319F0213079F01BC0FC01EE0FFF1F86
:10116E00E80FF91F21E030E02C0F3D1FE20FF31FB7
:10117E0022E022830DC0FC01EE0FFF1FE80FF91FC6
:10118E0041E050E04C0F5D1FE40FF51F23E022837A
:10119E008C01000F111F800F911F01E010E00C0F4A
:1011AE001D1F080F191FC8010E941B05C8010E94B0
:1011BE001B05811181E0F39452E05F1508F0B0CF6A
:1011CE0029960FB6F894DEBF0FBECDBFDF91CF913B
:0811DE001F910F91FF9008958D
:1011E600809195008823B1F090919400992391F015
:1011F6008150809395008CE291E00E94310A6091C3
:10120600950080E00E946E006091940081E00E944B
:101216006E000895811119C0909194009923A9F048
:1012260089E0809395009150909394008CE291E030
:101236000E94310A6091950080E00E946E006091E4
:10124600940081E00E946E000895811118C090916B
:101256009400911114C089E08093950080939400C6
:101266008CE291E00E94310A6091950080E00E9434
:101276006E006091940081E00E946E000895815096
:1012860080939500109294008CE291E00E94310ABE
:101296006091950080E00E946E006091940081E06C
:0612A6000E946E00089595
:1012AC0080919500893088F490919400993068F47D
:1012BC008F5F809395008CE291E00E94310A6091DF
:1012CC00950080E00E946E0008958930C1F49091E1
:1012DC0094009930A0F4109295009F5F9093940025
:1012EC008CE291E00E94310A6091950080E00E94AE
:1012FC006E006091940081E00E946E000895893028
:10130C00B9F490919400993099F410929500109240
:10131C0094008CE291E00E94310A6091950080E08B
:10132C000E946E006091940081E00E946E0008950E
:10133C008F5F8093950089E0809394008CE291E01C
:10134C000E94310A6091950080E00E946E006091CD
:0A135C00940081E00E946E000895E5
:101366001F920F920FB60F9211242F933F934F9314
:101376005F936F937F938F939F93AF93BF93EF93F7
:10138600FF93E0919200F091930009958AB78064EB
:101396008ABFFF91EF91BF91AF919F918F917F91FE
:1013A6006F915F914F913F912F910F900FBE0F90CC
:0413B6001F901895D7
:1013BA001F920F920FB60F9211242F933F934F93C0
:1013CA005F936F937F938F939F93AF93BF93EF93A3
:1013DA00FF93E0919000F091910009958AB7806897
:1013EA008ABFFF91EF91BF91AF919F918F917F91AA
:1013FA006F915F914F913F912F910F900FBE0F9078
:04140A001F90189582
:10140E001F920F920FB60F9211242F933F934F936B
:10141E005F936F937F938F939F93AF93BF93EF934E
:10142E00FF93E0918E00F0918F0009958AB780624C
:10143E008ABFFF91EF91BF91AF919F918F917F9155
:10144E006F915F914F913F912F910F900FBE0F9023
:04145E001F9018952E
:10146200CF93DF9300D0CDB7DEB79A83898306C0CE
:101472002BE033E63A95F1F72A95E1F789819A81D3
:101482009C01215031093A832983892B89F70F90D6
:081492000F90DF91CF91089546
:10149A0086E599E00E94840A83EF98E00E948E0A0A
:1014AA000E94660A0E948A070E9487080E940B0807
:1014BA0060E080E00E946E0060E081E00E946E00C1
:0214CA00FFCF52
:1014CC008BB780648BBF85B78C7F826085BF8BB7F1
:1014DC0080688BBF85B7837F826085BF8FB780683C
:0614EC008FBF81E00895AE
:1014F200EC010E94A30A0E94A20ACE010E94A40A41
:06150200CE010E94A00AC8
:10150800009731F0909393008093920080E00895C3
:0415180081E00895D1
:10151C00009731F0909391008093900080E00895B3
:04152C0081E00895BD
:0C153000EE0FFF1F0590F491E02D0994D0
:04153C000C9400000B
:041540000E946C0099
:02154400089508
:02154600089506
:02154800089504
:10154A000000000100020003000400050006000775
:10155A00000200020102020203020402050206025C
:02156A00070078
:09156C0003030003010003020067
:0315750001000171
:00000001FF
