:100000000C942A000C94E5010C94E5010C94E50194
:100010000C94E5010C94E5010C94E5010C94E501C8
:100020000C94E5010C94E5010C94E5010C94E501B8
:100030000C94E5010C94E5010C94E5010C94E501A8
:100040000C94E5010C94E5010C94E5010C94E50198
:100050000C94E50111241FBECFE5D8E0DEBFCDBF73
:0C0060000E94C4010C94DA01F894FFCF58
:10006C00843008F0E0C0683008F0DFC0433008F09E
:10007C00DEC08130E1F138F0823009F46CC083309D
:10008C0009F49DC0D6C0413081F018F04230F1F037
:10009C00D2C02AB381E090E002C0880F991F6A9504
:1000AC00E2F7822B8ABB80E008952AB381E090E0CE
:1000BC0002C0880F991F6A95E2F7982F90959223AA
:1000CC009ABB9BB3892B8BBB80E008952AB381E04C
:1000DC0090E002C0880F991F6A95E2F78095922FE5
:1000EC0098239ABB9BB389238BBB80E00895413046
:1000FC0081F018F04230F1F0A0C027B381E090E01D
:10010C0002C0880F991F6A95E2F7822B87BB80E0AB
:10011C00089527B381E090E002C0880F991F6A957B
:10012C00E2F7982F9095922397BB98B3892B88BBB5
:10013C0080E0089527B381E090E002C0880F991FFA
:10014C006A95E2F78095922F982397BB98B38923F1
:10015C0088BB80E00895413081F018F04230F1F016
:10016C006EC024B381E090E002C0880F991F6A959D
:10017C00E2F7822B84BB80E0089524B381E090E009
:10018C0002C0880F991F6A95E2F7982F90959223D9
:10019C0094BB95B3892B85BB80E0089524B381E093
:1001AC0090E002C0880F991F6A95E2F78095922F14
:1001BC00982394BB95B3892385BB80E00895413087
:1001CC0081F018F04230F1F03CC021B381E090E0B6
:1001DC0002C0880F991F6A95E2F7822B81BB80E0E1
:1001EC00089521B381E090E002C0880F991F6A95B1
:1001FC00E2F7982F9095922391BB92B3892B82BBF7
:10020C0080E0089521B381E090E002C0880F991F2F
:10021C006A95E2F78095922F982391BB92B389232C
:10022C0082BB80E0089582E0089583E0089584E025
:10023C00089580E0089580E0089580E0089580E0BE
:06024C00089580E0089512
:10025200843008F088C0683008F087C0423008F067
:1002620086C0813031F138F0823009F440C08330E9
:1002720009F45BC07EC0442319F0413071F07BC0A9
:100282002BB381E090E002C0880F991F6A95E2F7D4
:10029200809582238BBB80E008952BB381E090E0B0
:1002A20002C0880F991F6A95E2F7822B8BBB80E010
:1002B2000895442319F0413071F05FC028B381E002
:1002C20090E002C0880F991F6A95E2F78095822319
:1002D20088BB80E0089528B381E090E002C0880FD7
:1002E200991F6A95E2F7822B88BB80E00895442328
:1002F20019F0413071F043C025B381E090E002C0B3
:10030200880F991F6A95E2F78095822385BB80E06A
:10031200089525B381E090E002C0880F991F6A9585
:10032200E2F7822B85BB80E00895442319F0413027
:1003320071F027C022B381E090E002C0880F991FBC
:100342006A95E2F78095822382BB80E0089522B30A
:1003520081E090E002C0880F991F6A95E2F7822B34
:1003620082BB80E0089582E0089583E0089585E0ED
:10037200089580E0089580E0089580E0089580E087
:06038200089580E00895DB
:1003880040E060E080E00E94360041E050E060E03C
:1003980070E080E090E00E94290140E050E060E0D9
:0C03A80070E080E090E00E942901EFCF9F
:1003B400EC010E94EA010E94E901CE010E94EB01D6
:0603C400CE010E94E701DA
:0403CA000C9400008F
:0403CE000E94340055
:0203D20008958C
:0203D40008958A
:0203D600089588
:00000001FF
